{
  "abi": [
    {
      "inputs": [
        {
          "internalType": "address",
          "name": "_heratokenaddress",
          "type": "address"
        }
      ],
      "stateMutability": "nonpayable",
      "type": "constructor"
    },
    {
      "anonymous": false,
      "inputs": [
        {
          "indexed": false,
          "internalType": "address",
          "name": "user",
          "type": "address"
        },
        {
          "indexed": false,
          "internalType": "uint256",
          "name": "enrollmentId",
          "type": "uint256"
        },
        {
          "indexed": false,
          "internalType": "uint256",
          "name": "metricsId",
          "type": "uint256"
        },
        {
          "indexed": false,
          "internalType": "string",
          "name": "description",
          "type": "string"
        },
        {
          "indexed": false,
          "internalType": "string",
          "name": "uploadURL",
          "type": "string"
        },
        {
          "indexed": false,
          "internalType": "uint256",
          "name": "activityDate",
          "type": "uint256"
        }
      ],
      "name": "ActivityAdded",
      "type": "event"
    },
    {
      "anonymous": false,
      "inputs": [
        {
          "indexed": false,
          "internalType": "string",
          "name": "name",
          "type": "string"
        },
        {
          "indexed": false,
          "internalType": "string",
          "name": "description",
          "type": "string"
        },
        {
          "indexed": false,
          "internalType": "uint256",
          "name": "keyIndex",
          "type": "uint256"
        },
        {
          "indexed": false,
          "internalType": "string",
          "name": "communityname",
          "type": "string"
        },
        {
          "indexed": false,
          "internalType": "uint256",
          "name": "communityIndex",
          "type": "uint256"
        }
      ],
      "name": "ChallengeAdded",
      "type": "event"
    },
    {
      "anonymous": false,
      "inputs": [
        {
          "indexed": false,
          "internalType": "string",
          "name": "name",
          "type": "string"
        },
        {
          "indexed": false,
          "internalType": "uint256",
          "name": "indexKey",
          "type": "uint256"
        }
      ],
      "name": "CohortAdded",
      "type": "event"
    },
    {
      "anonymous": false,
      "inputs": [
        {
          "indexed": false,
          "internalType": "string",
          "name": "name",
          "type": "string"
        },
        {
          "indexed": false,
          "internalType": "string",
          "name": "description",
          "type": "string"
        },
        {
          "indexed": false,
          "internalType": "uint256",
          "name": "keyindex",
          "type": "uint256"
        }
      ],
      "name": "CommunityAdded",
      "type": "event"
    },
    {
      "anonymous": false,
      "inputs": [
        {
          "indexed": false,
          "internalType": "address",
          "name": "user",
          "type": "address"
        },
        {
          "indexed": false,
          "internalType": "uint256",
          "name": "_challengeId",
          "type": "uint256"
        },
        {
          "indexed": false,
          "internalType": "uint256",
          "name": "_cohortId",
          "type": "uint256"
        },
        {
          "indexed": false,
          "internalType": "uint256",
          "name": "_enrollmentKey",
          "type": "uint256"
        }
      ],
      "name": "EnrollmentAdded",
      "type": "event"
    },
    {
      "anonymous": false,
      "inputs": [
        {
          "indexed": true,
          "internalType": "address",
          "name": "_owner",
          "type": "address"
        },
        {
          "indexed": false,
          "internalType": "string",
          "name": "_ipfsHash",
          "type": "string"
        },
        {
          "indexed": false,
          "internalType": "uint256",
          "name": "_enrollmentId",
          "type": "uint256"
        },
        {
          "indexed": false,
          "internalType": "uint256",
          "name": "_metricId",
          "type": "uint256"
        },
        {
          "indexed": false,
          "internalType": "bool",
          "name": "_isValidated",
          "type": "bool"
        },
        {
          "indexed": false,
          "internalType": "string",
          "name": "_title",
          "type": "string"
        },
        {
          "indexed": false,
          "internalType": "string",
          "name": "_description",
          "type": "string"
        },
        {
          "indexed": false,
          "internalType": "string",
          "name": "_tags",
          "type": "string"
        },
        {
          "indexed": false,
          "internalType": "uint256",
          "name": "_uploadedOn",
          "type": "uint256"
        }
      ],
      "name": "LogImageUploaded",
      "type": "event"
    },
    {
      "anonymous": false,
      "inputs": [
        {
          "indexed": false,
          "internalType": "string",
          "name": "name",
          "type": "string"
        },
        {
          "indexed": false,
          "internalType": "string",
          "name": "description",
          "type": "string"
        },
        {
          "indexed": false,
          "internalType": "uint256",
          "name": "metricPoints",
          "type": "uint256"
        },
        {
          "indexed": false,
          "internalType": "uint256",
          "name": "challengeId",
          "type": "uint256"
        },
        {
          "indexed": false,
          "internalType": "uint256",
          "name": "indexKey",
          "type": "uint256"
        }
      ],
      "name": "MetricAdded",
      "type": "event"
    },
    {
      "anonymous": false,
      "inputs": [
        {
          "indexed": false,
          "internalType": "string",
          "name": "name",
          "type": "string"
        },
        {
          "indexed": false,
          "internalType": "uint256",
          "name": "_priceValue",
          "type": "uint256"
        }
      ],
      "name": "NFTRuleAdded",
      "type": "event"
    },
    {
      "inputs": [
        {
          "internalType": "string",
          "name": "",
          "type": "string"
        },
        {
          "internalType": "uint256",
          "name": "",
          "type": "uint256"
        }
      ],
      "name": "ChallengeNameToMetric",
      "outputs": [
        {
          "internalType": "uint256",
          "name": "",
          "type": "uint256"
        }
      ],
      "stateMutability": "view",
      "type": "function"
    },
    {
      "inputs": [
        {
          "internalType": "string",
          "name": "",
          "type": "string"
        },
        {
          "internalType": "uint256",
          "name": "",
          "type": "uint256"
        }
      ],
      "name": "CommunityNameToChallenge",
      "outputs": [
        {
          "internalType": "uint256",
          "name": "",
          "type": "uint256"
        }
      ],
      "stateMutability": "view",
      "type": "function"
    },
    {
      "inputs": [],
      "name": "accumulatePointsByUser",
      "outputs": [],
      "stateMutability": "nonpayable",
      "type": "function"
    },
    {
      "inputs": [
        {
          "internalType": "uint256",
          "name": "",
          "type": "uint256"
        }
      ],
      "name": "activities",
      "outputs": [
        {
          "internalType": "address",
          "name": "user",
          "type": "address"
        },
        {
          "internalType": "uint256",
          "name": "enrollmentId",
          "type": "uint256"
        },
        {
          "internalType": "uint256",
          "name": "metricsId",
          "type": "uint256"
        },
        {
          "internalType": "string",
          "name": "description",
          "type": "string"
        },
        {
          "internalType": "string",
          "name": "uploadURL",
          "type": "string"
        },
        {
          "internalType": "uint256",
          "name": "activityDate",
          "type": "uint256"
        },
        {
          "internalType": "bool",
          "name": "voteforValidity",
          "type": "bool"
        }
      ],
      "stateMutability": "view",
      "type": "function"
    },
    {
      "inputs": [],
      "name": "activityKey",
      "outputs": [
        {
          "internalType": "uint256",
          "name": "",
          "type": "uint256"
        }
      ],
      "stateMutability": "view",
      "type": "function"
    },
    {
      "inputs": [],
      "name": "challengeKey",
      "outputs": [
        {
          "internalType": "uint256",
          "name": "",
          "type": "uint256"
        }
      ],
      "stateMutability": "view",
      "type": "function"
    },
    {
      "inputs": [
        {
          "internalType": "uint256",
          "name": "",
          "type": "uint256"
        }
      ],
      "name": "challenges",
      "outputs": [
        {
          "internalType": "string",
          "name": "name",
          "type": "string"
        },
        {
          "internalType": "string",
          "name": "description",
          "type": "string"
        },
        {
          "internalType": "uint256",
          "name": "maxEnroll",
          "type": "uint256"
        },
        {
          "internalType": "uint256",
          "name": "currentEnroll",
          "type": "uint256"
        },
        {
          "internalType": "bool",
          "name": "isClosed",
          "type": "bool"
        },
        {
          "internalType": "uint256",
          "name": "communityId",
          "type": "uint256"
        },
        {
          "internalType": "uint256",
          "name": "indexKey",
          "type": "uint256"
        }
      ],
      "stateMutability": "view",
      "type": "function"
    },
    {
      "inputs": [],
      "name": "cohortKey",
      "outputs": [
        {
          "internalType": "uint256",
          "name": "",
          "type": "uint256"
        }
      ],
      "stateMutability": "view",
      "type": "function"
    },
    {
      "inputs": [
        {
          "internalType": "uint256",
          "name": "",
          "type": "uint256"
        }
      ],
      "name": "cohorts",
      "outputs": [
        {
          "internalType": "string",
          "name": "name",
          "type": "string"
        },
        {
          "internalType": "uint256",
          "name": "challengeId",
          "type": "uint256"
        },
        {
          "internalType": "uint256",
          "name": "indexKey",
          "type": "uint256"
        }
      ],
      "stateMutability": "view",
      "type": "function"
    },
    {
      "inputs": [
        {
          "internalType": "uint256",
          "name": "",
          "type": "uint256"
        }
      ],
      "name": "communities",
      "outputs": [
        {
          "internalType": "string",
          "name": "name",
          "type": "string"
        },
        {
          "internalType": "string",
          "name": "description",
          "type": "string"
        },
        {
          "internalType": "bool",
          "name": "isClosed",
          "type": "bool"
        },
        {
          "internalType": "uint256",
          "name": "numberEnrolled",
          "type": "uint256"
        },
        {
          "internalType": "uint256",
          "name": "indexKey",
          "type": "uint256"
        }
      ],
      "stateMutability": "view",
      "type": "function"
    },
    {
      "inputs": [],
      "name": "communityKey",
      "outputs": [
        {
          "internalType": "uint256",
          "name": "",
          "type": "uint256"
        }
      ],
      "stateMutability": "view",
      "type": "function"
    },
    {
      "inputs": [
        {
          "internalType": "uint256",
          "name": "_challengeId",
          "type": "uint256"
        },
        {
          "internalType": "uint256",
          "name": "_cohortId",
          "type": "uint256"
        }
      ],
      "name": "enrollIntoChallenge",
      "outputs": [
        {
          "internalType": "uint256",
          "name": "",
          "type": "uint256"
        }
      ],
      "stateMutability": "nonpayable",
      "type": "function"
    },
    {
      "inputs": [
        {
          "internalType": "uint256",
          "name": "",
          "type": "uint256"
        },
        {
          "internalType": "uint256",
          "name": "",
          "type": "uint256"
        }
      ],
      "name": "enrollmentIdToImages",
      "outputs": [
        {
          "internalType": "string",
          "name": "ipfsHash",
          "type": "string"
        },
        {
          "internalType": "uint256",
          "name": "enrollmentId",
          "type": "uint256"
        },
        {
          "internalType": "uint256",
          "name": "metricId",
          "type": "uint256"
        },
        {
          "internalType": "bool",
          "name": "isValidated",
          "type": "bool"
        },
        {
          "internalType": "string",
          "name": "title",
          "type": "string"
        },
        {
          "internalType": "string",
          "name": "description",
          "type": "string"
        },
        {
          "internalType": "string",
          "name": "tags",
          "type": "string"
        },
        {
          "internalType": "uint256",
          "name": "uploadedOn",
          "type": "uint256"
        },
        {
          "internalType": "uint256",
          "name": "keyIndex",
          "type": "uint256"
        }
      ],
      "stateMutability": "view",
      "type": "function"
    },
    {
      "inputs": [],
      "name": "enrollmentKey",
      "outputs": [
        {
          "internalType": "uint256",
          "name": "",
          "type": "uint256"
        }
      ],
      "stateMutability": "view",
      "type": "function"
    },
    {
      "inputs": [
        {
          "internalType": "uint256",
          "name": "",
          "type": "uint256"
        }
      ],
      "name": "enrollments",
      "outputs": [
        {
          "internalType": "address",
          "name": "user",
          "type": "address"
        },
        {
          "internalType": "uint256",
          "name": "challengeId",
          "type": "uint256"
        },
        {
          "internalType": "uint256",
          "name": "cohortId",
          "type": "uint256"
        },
        {
          "internalType": "bool",
          "name": "isActive",
          "type": "bool"
        },
        {
          "internalType": "bool",
          "name": "isExist",
          "type": "bool"
        },
        {
          "internalType": "uint256",
          "name": "indexKey",
          "type": "uint256"
        }
      ],
      "stateMutability": "view",
      "type": "function"
    },
    {
      "inputs": [],
      "name": "hera",
      "outputs": [
        {
          "internalType": "contract HeraToken",
          "name": "",
          "type": "address"
        }
      ],
      "stateMutability": "view",
      "type": "function"
    },
    {
      "inputs": [
        {
          "internalType": "uint256",
          "name": "",
          "type": "uint256"
        }
      ],
      "name": "images",
      "outputs": [
        {
          "internalType": "string",
          "name": "ipfsHash",
          "type": "string"
        },
        {
          "internalType": "uint256",
          "name": "enrollmentId",
          "type": "uint256"
        },
        {
          "internalType": "uint256",
          "name": "metricId",
          "type": "uint256"
        },
        {
          "internalType": "bool",
          "name": "isValidated",
          "type": "bool"
        },
        {
          "internalType": "string",
          "name": "title",
          "type": "string"
        },
        {
          "internalType": "string",
          "name": "description",
          "type": "string"
        },
        {
          "internalType": "string",
          "name": "tags",
          "type": "string"
        },
        {
          "internalType": "uint256",
          "name": "uploadedOn",
          "type": "uint256"
        },
        {
          "internalType": "uint256",
          "name": "keyIndex",
          "type": "uint256"
        }
      ],
      "stateMutability": "view",
      "type": "function"
    },
    {
      "inputs": [
        {
          "internalType": "uint256",
          "name": "",
          "type": "uint256"
        }
      ],
      "name": "indexKeyToActivity",
      "outputs": [
        {
          "internalType": "address",
          "name": "user",
          "type": "address"
        },
        {
          "internalType": "uint256",
          "name": "enrollmentId",
          "type": "uint256"
        },
        {
          "internalType": "uint256",
          "name": "metricsId",
          "type": "uint256"
        },
        {
          "internalType": "string",
          "name": "description",
          "type": "string"
        },
        {
          "internalType": "string",
          "name": "uploadURL",
          "type": "string"
        },
        {
          "internalType": "uint256",
          "name": "activityDate",
          "type": "uint256"
        },
        {
          "internalType": "bool",
          "name": "voteforValidity",
          "type": "bool"
        }
      ],
      "stateMutability": "view",
      "type": "function"
    },
    {
      "inputs": [
        {
          "internalType": "uint256",
          "name": "",
          "type": "uint256"
        }
      ],
      "name": "indexKeyToChallenge",
      "outputs": [
        {
          "internalType": "string",
          "name": "name",
          "type": "string"
        },
        {
          "internalType": "string",
          "name": "description",
          "type": "string"
        },
        {
          "internalType": "uint256",
          "name": "maxEnroll",
          "type": "uint256"
        },
        {
          "internalType": "uint256",
          "name": "currentEnroll",
          "type": "uint256"
        },
        {
          "internalType": "bool",
          "name": "isClosed",
          "type": "bool"
        },
        {
          "internalType": "uint256",
          "name": "communityId",
          "type": "uint256"
        },
        {
          "internalType": "uint256",
          "name": "indexKey",
          "type": "uint256"
        }
      ],
      "stateMutability": "view",
      "type": "function"
    },
    {
      "inputs": [
        {
          "internalType": "uint256",
          "name": "",
          "type": "uint256"
        }
      ],
      "name": "indexKeyToCohort",
      "outputs": [
        {
          "internalType": "string",
          "name": "name",
          "type": "string"
        },
        {
          "internalType": "uint256",
          "name": "challengeId",
          "type": "uint256"
        },
        {
          "internalType": "uint256",
          "name": "indexKey",
          "type": "uint256"
        }
      ],
      "stateMutability": "view",
      "type": "function"
    },
    {
      "inputs": [
        {
          "internalType": "uint256",
          "name": "",
          "type": "uint256"
        }
      ],
      "name": "indexKeyToCommunity",
      "outputs": [
        {
          "internalType": "string",
          "name": "name",
          "type": "string"
        },
        {
          "internalType": "string",
          "name": "description",
          "type": "string"
        },
        {
          "internalType": "bool",
          "name": "isClosed",
          "type": "bool"
        },
        {
          "internalType": "uint256",
          "name": "numberEnrolled",
          "type": "uint256"
        },
        {
          "internalType": "uint256",
          "name": "indexKey",
          "type": "uint256"
        }
      ],
      "stateMutability": "view",
      "type": "function"
    },
    {
      "inputs": [
        {
          "internalType": "uint256",
          "name": "",
          "type": "uint256"
        }
      ],
      "name": "indexKeyToEnrollment",
      "outputs": [
        {
          "internalType": "address",
          "name": "user",
          "type": "address"
        },
        {
          "internalType": "uint256",
          "name": "challengeId",
          "type": "uint256"
        },
        {
          "internalType": "uint256",
          "name": "cohortId",
          "type": "uint256"
        },
        {
          "internalType": "bool",
          "name": "isActive",
          "type": "bool"
        },
        {
          "internalType": "bool",
          "name": "isExist",
          "type": "bool"
        },
        {
          "internalType": "uint256",
          "name": "indexKey",
          "type": "uint256"
        }
      ],
      "stateMutability": "view",
      "type": "function"
    },
    {
      "inputs": [
        {
          "internalType": "uint256",
          "name": "",
          "type": "uint256"
        }
      ],
      "name": "indexKeyToMetric",
      "outputs": [
        {
          "internalType": "string",
          "name": "name",
          "type": "string"
        },
        {
          "internalType": "string",
          "name": "description",
          "type": "string"
        },
        {
          "internalType": "uint256",
          "name": "metricPoints",
          "type": "uint256"
        },
        {
          "internalType": "uint256",
          "name": "challengeId",
          "type": "uint256"
        },
        {
          "internalType": "uint256",
          "name": "indexKey",
          "type": "uint256"
        }
      ],
      "stateMutability": "view",
      "type": "function"
    },
    {
      "inputs": [
        {
          "internalType": "uint256",
          "name": "_enrollmentId",
          "type": "uint256"
        },
        {
          "internalType": "uint256",
          "name": "_metricsId",
          "type": "uint256"
        },
        {
          "internalType": "string",
          "name": "_description",
          "type": "string"
        },
        {
          "internalType": "string",
          "name": "_uploadURL",
          "type": "string"
        },
        {
          "internalType": "uint256",
          "name": "_activityDate",
          "type": "uint256"
        }
      ],
      "name": "insertActivity",
      "outputs": [
        {
          "internalType": "uint256",
          "name": "",
          "type": "uint256"
        }
      ],
      "stateMutability": "nonpayable",
      "type": "function"
    },
    {
      "inputs": [
        {
          "internalType": "string",
          "name": "_communityName",
          "type": "string"
        },
        {
          "internalType": "uint256",
          "name": "_communityId",
          "type": "uint256"
        },
        {
          "internalType": "string",
          "name": "_name",
          "type": "string"
        },
        {
          "internalType": "string",
          "name": "_description",
          "type": "string"
        },
        {
          "internalType": "uint256",
          "name": "_maxEnroll",
          "type": "uint256"
        },
        {
          "internalType": "bool",
          "name": "_isclosed",
          "type": "bool"
        }
      ],
      "name": "insertChallenge",
      "outputs": [
        {
          "internalType": "uint256",
          "name": "",
          "type": "uint256"
        }
      ],
      "stateMutability": "nonpayable",
      "type": "function"
    },
    {
      "inputs": [
        {
          "internalType": "string",
          "name": "_name",
          "type": "string"
        },
        {
          "internalType": "uint256",
          "name": "_challengeId",
          "type": "uint256"
        }
      ],
      "name": "insertCohort",
      "outputs": [
        {
          "internalType": "uint256",
          "name": "",
          "type": "uint256"
        }
      ],
      "stateMutability": "nonpayable",
      "type": "function"
    },
    {
      "inputs": [
        {
          "internalType": "string",
          "name": "_name",
          "type": "string"
        },
        {
          "internalType": "string",
          "name": "_description",
          "type": "string"
        },
        {
          "internalType": "bool",
          "name": "_isclosed",
          "type": "bool"
        }
      ],
      "name": "insertCommunity",
      "outputs": [
        {
          "internalType": "uint256",
          "name": "",
          "type": "uint256"
        }
      ],
      "stateMutability": "nonpayable",
      "type": "function"
    },
    {
      "inputs": [
        {
          "internalType": "string",
          "name": "_name",
          "type": "string"
        },
        {
          "internalType": "string",
          "name": "_description",
          "type": "string"
        },
        {
          "internalType": "uint256",
          "name": "_metricPoints",
          "type": "uint256"
        },
        {
          "internalType": "uint256",
          "name": "_challengeId",
          "type": "uint256"
        }
      ],
      "name": "insertMetric",
      "outputs": [
        {
          "internalType": "uint256",
          "name": "",
          "type": "uint256"
        }
      ],
      "stateMutability": "nonpayable",
      "type": "function"
    },
    {
      "inputs": [
        {
          "internalType": "string",
          "name": "_name",
          "type": "string"
        },
        {
          "internalType": "uint256",
          "name": "_priceValue",
          "type": "uint256"
        }
      ],
      "name": "insertNFTRules",
      "outputs": [
        {
          "internalType": "string",
          "name": "",
          "type": "string"
        }
      ],
      "stateMutability": "nonpayable",
      "type": "function"
    },
    {
      "inputs": [],
      "name": "metricKey",
      "outputs": [
        {
          "internalType": "uint256",
          "name": "",
          "type": "uint256"
        }
      ],
      "stateMutability": "view",
      "type": "function"
    },
    {
      "inputs": [
        {
          "internalType": "uint256",
          "name": "",
          "type": "uint256"
        }
      ],
      "name": "metrics",
      "outputs": [
        {
          "internalType": "string",
          "name": "name",
          "type": "string"
        },
        {
          "internalType": "string",
          "name": "description",
          "type": "string"
        },
        {
          "internalType": "uint256",
          "name": "metricPoints",
          "type": "uint256"
        },
        {
          "internalType": "uint256",
          "name": "challengeId",
          "type": "uint256"
        },
        {
          "internalType": "uint256",
          "name": "indexKey",
          "type": "uint256"
        }
      ],
      "stateMutability": "view",
      "type": "function"
    },
    {
      "inputs": [
        {
          "internalType": "string",
          "name": "",
          "type": "string"
        }
      ],
      "name": "nameToChallenge",
      "outputs": [
        {
          "internalType": "string",
          "name": "name",
          "type": "string"
        },
        {
          "internalType": "string",
          "name": "description",
          "type": "string"
        },
        {
          "internalType": "uint256",
          "name": "maxEnroll",
          "type": "uint256"
        },
        {
          "internalType": "uint256",
          "name": "currentEnroll",
          "type": "uint256"
        },
        {
          "internalType": "bool",
          "name": "isClosed",
          "type": "bool"
        },
        {
          "internalType": "uint256",
          "name": "communityId",
          "type": "uint256"
        },
        {
          "internalType": "uint256",
          "name": "indexKey",
          "type": "uint256"
        }
      ],
      "stateMutability": "view",
      "type": "function"
    },
    {
      "inputs": [
        {
          "internalType": "string",
          "name": "",
          "type": "string"
        }
      ],
      "name": "nameToCohort",
      "outputs": [
        {
          "internalType": "string",
          "name": "name",
          "type": "string"
        },
        {
          "internalType": "uint256",
          "name": "challengeId",
          "type": "uint256"
        },
        {
          "internalType": "uint256",
          "name": "indexKey",
          "type": "uint256"
        }
      ],
      "stateMutability": "view",
      "type": "function"
    },
    {
      "inputs": [
        {
          "internalType": "string",
          "name": "",
          "type": "string"
        }
      ],
      "name": "nameToCommunity",
      "outputs": [
        {
          "internalType": "string",
          "name": "name",
          "type": "string"
        },
        {
          "internalType": "string",
          "name": "description",
          "type": "string"
        },
        {
          "internalType": "bool",
          "name": "isClosed",
          "type": "bool"
        },
        {
          "internalType": "uint256",
          "name": "numberEnrolled",
          "type": "uint256"
        },
        {
          "internalType": "uint256",
          "name": "indexKey",
          "type": "uint256"
        }
      ],
      "stateMutability": "view",
      "type": "function"
    },
    {
      "inputs": [
        {
          "internalType": "string",
          "name": "",
          "type": "string"
        }
      ],
      "name": "nameToMetric",
      "outputs": [
        {
          "internalType": "string",
          "name": "name",
          "type": "string"
        },
        {
          "internalType": "string",
          "name": "description",
          "type": "string"
        },
        {
          "internalType": "uint256",
          "name": "metricPoints",
          "type": "uint256"
        },
        {
          "internalType": "uint256",
          "name": "challengeId",
          "type": "uint256"
        },
        {
          "internalType": "uint256",
          "name": "indexKey",
          "type": "uint256"
        }
      ],
      "stateMutability": "view",
      "type": "function"
    },
    {
      "inputs": [
        {
          "internalType": "string",
          "name": "",
          "type": "string"
        }
      ],
      "name": "nameToNFTRule",
      "outputs": [
        {
          "internalType": "string",
          "name": "nftType",
          "type": "string"
        },
        {
          "internalType": "uint256",
          "name": "nftPrice",
          "type": "uint256"
        }
      ],
      "stateMutability": "view",
      "type": "function"
    },
    {
      "inputs": [
        {
          "internalType": "uint256",
          "name": "",
          "type": "uint256"
        }
      ],
      "name": "nftrules",
      "outputs": [
        {
          "internalType": "string",
          "name": "nftType",
          "type": "string"
        },
        {
          "internalType": "uint256",
          "name": "nftPrice",
          "type": "uint256"
        }
      ],
      "stateMutability": "view",
      "type": "function"
    },
    {
      "inputs": [],
      "name": "owner",
      "outputs": [
        {
          "internalType": "address",
          "name": "",
          "type": "address"
        }
      ],
      "stateMutability": "view",
      "type": "function"
    },
    {
      "inputs": [
        {
          "internalType": "address",
          "name": "",
          "type": "address"
        },
        {
          "internalType": "uint256",
          "name": "",
          "type": "uint256"
        }
      ],
      "name": "ownerToEnrollments",
      "outputs": [
        {
          "internalType": "uint256",
          "name": "",
          "type": "uint256"
        }
      ],
      "stateMutability": "view",
      "type": "function"
    },
    {
      "inputs": [
        {
          "internalType": "address",
          "name": "",
          "type": "address"
        },
        {
          "internalType": "uint256",
          "name": "",
          "type": "uint256"
        }
      ],
      "name": "ownerToImages",
      "outputs": [
        {
          "internalType": "string",
          "name": "ipfsHash",
          "type": "string"
        },
        {
          "internalType": "uint256",
          "name": "enrollmentId",
          "type": "uint256"
        },
        {
          "internalType": "uint256",
          "name": "metricId",
          "type": "uint256"
        },
        {
          "internalType": "bool",
          "name": "isValidated",
          "type": "bool"
        },
        {
          "internalType": "string",
          "name": "title",
          "type": "string"
        },
        {
          "internalType": "string",
          "name": "description",
          "type": "string"
        },
        {
          "internalType": "string",
          "name": "tags",
          "type": "string"
        },
        {
          "internalType": "uint256",
          "name": "uploadedOn",
          "type": "uint256"
        },
        {
          "internalType": "uint256",
          "name": "keyIndex",
          "type": "uint256"
        }
      ],
      "stateMutability": "view",
      "type": "function"
    },
    {
      "inputs": [
        {
          "internalType": "string",
          "name": "_ipfsHash",
          "type": "string"
        },
        {
          "internalType": "uint256",
          "name": "_enrollmentId",
          "type": "uint256"
        },
        {
          "internalType": "uint256",
          "name": "_metricId",
          "type": "uint256"
        },
        {
          "internalType": "bool",
          "name": "_isValidated",
          "type": "bool"
        },
        {
          "internalType": "string",
          "name": "_title",
          "type": "string"
        },
        {
          "internalType": "string",
          "name": "_description",
          "type": "string"
        },
        {
          "internalType": "string",
          "name": "_tags",
          "type": "string"
        }
      ],
      "name": "uploadImage",
      "outputs": [
        {
          "internalType": "bool",
          "name": "_success",
          "type": "bool"
        }
      ],
      "stateMutability": "nonpayable",
      "type": "function"
    },
    {
      "inputs": [
        {
          "internalType": "uint256",
          "name": "activityId",
          "type": "uint256"
        }
      ],
      "name": "validateActivity",
      "outputs": [
        {
          "internalType": "uint256",
          "name": "",
          "type": "uint256"
        }
      ],
      "stateMutability": "nonpayable",
      "type": "function"
    },
    {
      "inputs": [
        {
          "internalType": "uint256",
          "name": "_enrollmentid",
          "type": "uint256"
        }
      ],
      "name": "viewActivitybyEnrollment",
      "outputs": [
        {
          "components": [
            {
              "internalType": "string",
              "name": "ipfsHash",
              "type": "string"
            },
            {
              "internalType": "uint256",
              "name": "enrollmentId",
              "type": "uint256"
            },
            {
              "internalType": "uint256",
              "name": "metricId",
              "type": "uint256"
            },
            {
              "internalType": "bool",
              "name": "isValidated",
              "type": "bool"
            },
            {
              "internalType": "string",
              "name": "title",
              "type": "string"
            },
            {
              "internalType": "string",
              "name": "description",
              "type": "string"
            },
            {
              "internalType": "string",
              "name": "tags",
              "type": "string"
            },
            {
              "internalType": "uint256",
              "name": "uploadedOn",
              "type": "uint256"
            },
            {
              "internalType": "uint256",
              "name": "keyIndex",
              "type": "uint256"
            }
          ],
          "internalType": "struct InfinityHabit.Image[]",
          "name": "",
          "type": "tuple[]"
        }
      ],
      "stateMutability": "view",
      "type": "function"
    },
    {
      "inputs": [
        {
          "internalType": "uint256",
          "name": "_communityId",
          "type": "uint256"
        },
        {
          "internalType": "string",
          "name": "_communityname",
          "type": "string"
        }
      ],
      "name": "viewChallengebyCommunity",
      "outputs": [
        {
          "internalType": "uint256[]",
          "name": "",
          "type": "uint256[]"
        }
      ],
      "stateMutability": "view",
      "type": "function"
    },
    {
      "inputs": [],
      "name": "viewEnrollmentsbyUser",
      "outputs": [
        {
          "internalType": "uint256[]",
          "name": "",
          "type": "uint256[]"
        }
      ],
      "stateMutability": "view",
      "type": "function"
    },
    {
      "inputs": [],
      "name": "viewEnrollmentsbyUserFe",
      "outputs": [
        {
          "components": [
            {
              "internalType": "address",
              "name": "user",
              "type": "address"
            },
            {
              "internalType": "string",
              "name": "challengeName",
              "type": "string"
            },
            {
              "internalType": "string",
              "name": "challengeDescription",
              "type": "string"
            },
            {
              "internalType": "uint256",
              "name": "enrollmentId",
              "type": "uint256"
            },
            {
              "internalType": "uint256",
              "name": "challengeId",
              "type": "uint256"
            }
          ],
          "internalType": "struct InfinityHabit.EnrollmentbyUser[]",
          "name": "",
          "type": "tuple[]"
        }
      ],
      "stateMutability": "nonpayable",
      "type": "function"
    },
    {
      "inputs": [
        {
          "internalType": "uint256",
          "name": "_challengeId",
          "type": "uint256"
        },
        {
          "internalType": "string",
          "name": "_challengename",
          "type": "string"
        }
      ],
      "name": "viewMetricbyChallenge",
      "outputs": [
        {
          "internalType": "uint256[]",
          "name": "",
          "type": "uint256[]"
        }
      ],
      "stateMutability": "view",
      "type": "function"
    },
    {
      "inputs": [],
      "name": "viewNFTRules",
      "outputs": [
        {
          "internalType": "string",
          "name": "rule1",
          "type": "string"
        },
        {
          "internalType": "string",
          "name": "rule2",
          "type": "string"
        },
        {
          "internalType": "string",
          "name": "rule3",
          "type": "string"
        }
      ],
      "stateMutability": "view",
      "type": "function"
    },
    {
      "inputs": [
        {
          "internalType": "address",
          "name": "accnt",
          "type": "address"
        }
      ],
      "name": "viewPointBalances",
      "outputs": [
        {
          "internalType": "uint256",
          "name": "",
          "type": "uint256"
        }
      ],
      "stateMutability": "view",
      "type": "function"
    }
  ],
  "bytecode": {
    "object": "0x608060405260006006556000600b55600060105560006014556000601a556000601d553480156200002f57600080fd5b506040516200679e3803806200679e833981016040819052620000529162001b26565b6200009d60405180604001604052806011815260200160008051602062006416833981519152815250604051806060016040528060348152602001620064f86034913960006200094f565b50620000ef6040518060400160405280601281526020017146696e616e6369616c2057656c6c6e65737360701b815250604051806060016040528060318152602001620067196031913960006200094f565b506200013e6040518060400160405280600f81526020016e4d656e74616c2057656c6c6e65737360881b8152506040518060600160405280602c815260200162006493602c913960006200094f565b506200018b6040518060400160405280600d81526020016c52656c6174696f6e736869707360981b815250604051806080016040528060468152602001620065696046913960006200094f565b50620002116040518060400160405280601181526020016000805160206200641683398151915281525060006040518060400160405280601681526020017f4265636f6d652061206561726c69657220726973657200000000000000000000815250604051806060016040528060398152602001620064bf603991396032600062000b8b565b50620002976040518060400160405280601181526020016000805160206200641683398151915281525060006040518060400160405280601381526020017f47657420746f207a6f6e65206f6620666c6f77000000000000000000000000008152506040518060800160405280605a815260200162006630605a91396032600062000b8b565b506200030d6040518060400160405280601181526020016000805160206200641683398151915281525060006040518060400160405280600d81526020016c426c6f6720657665727964617960981b8152506040518060a0016040528060688152602001620066b1606891396032600062000b8b565b506200038b6040518060400160405280601281526020017146696e616e6369616c2057656c6c6e65737360701b81525060016040518060400160405280600f81526020016e496e7665737420657665727964617960881b8152506040518060600160405280603d81526020016200652c603d91396032600062000b8b565b50604080518082019091526007815266436f686f72743160c81b6020820152620003b790600062000e55565b50620004096040518060400160405280601081526020016f0a0d2c6e8eae4ca40decc40eec2e8c6d60831b8152506040518060600160405280602d815260200162006466602d91396002600062000fe5565b50620004686040518060400160405280601981526020017f506963747572652077697468207075626c69632070726f6f66000000000000008152506040518060800160405280605481526020016200674a605491396005600062000fe5565b50620004c76040518060400160405280601581526020017f47796d20617474656e64616e6365207265706f7274000000000000000000000081525060405180606001604052806030815260200162006600603091396005600062000fe5565b50620005266040518060400160405280601381526020017f576f726b20676f616c7320616368656976656400000000000000000000000000815250604051806060016040528060268152602001620065af602691396003600162000fe5565b50620005976040518060400160405280600d81526020016c466f63757373656420576f726b60981b8152506040518060400160405280601981526020017f466f637573206f6e20776f726b20666f72203335206d696e73000000000000008152506005600162000fe560201b60201c565b50620005fa6040518060400160405280600a815260200169426c6f67206c696e6b7360b01b8152506040518060400160405280601281526020017153656e64206c696e6b7320746f20626c6f6760701b8152506003600262000fe560201b60201c565b50620006596040518060400160405280601581526020017f426c6f67206c696e6b732077697468206c696b6573000000000000000000000081525060405180606001604052806030815260200162006436603091396005600262000fe5565b50620006c76040518060400160405280600b81526020016a4173736573736d656e747360a81b8152506040518060400160405280601a81526020017f5265636f7264206f66206173736573736d656e742074616b656e00000000000081525060038062000fe560201b60201c565b50620007356040518060400160405280600a815260200169426c6f6720706f73747360b01b8152506040518060400160405280601a81526020017f426c6f6720706f737473206f6e206e6577206c6561726e696e670000000000008152506005600362000fe560201b60201c565b50620007836040518060400160405280600c81526020016b20b8383932b1b4b0ba34b7b760a11b8152506040518060600160405280602b8152602001620065d5602b91396005600362000fe5565b50620007916000806200123b565b50620007a0600160006200123b565b50620007af600260006200123b565b50620008736040518060400160405280601081526020016f0aec2e8c6d04092dac2ceca40d0c2e6d60831b81525060008060006040518060400160405280601181526020017059657320776f6b652d757020746f64617960781b8152506040518060400160405280601b81526020017f4561726c7920746f20626564204561726c7920746f205261697365000000000081525060405180604001604052806011815260200160008051602062006416833981519152815250620017c760201b60201c565b506200091f6040518060400160405280601081526020016f0aec2e8c6d04092dac2ceca40d0c2e6d60831b81525060008060006040518060400160405280601681526020017f546f64617920776173206e6f20646966666572656e74000000000000000000008152506040518060600160405280602781526020016200668a602791396040805180820190915260118152600080516020620064168339815191526020820152620017c7565b50600280546001600160a01b039092166001600160a01b0319928316179055600080549091163317905562001f96565b6000620009866040518060a00160405280606081526020016060815260200160001515815260200160008152602001600081525090565b84815260208101849052821515604080830191909152600060608301526006546080830152518190600390620009be90889062001b7e565b90815260405190819003602001902081518190620009dd908262001c41565b5060208201516001820190620009f4908262001c41565b5060408281015160028301805460ff1916911515919091179055606083015160038301556080909201516004918201556006546000908152602091909152208151829190819062000a46908262001c41565b506020820151600182019062000a5d908262001c41565b50604082015160028201805460ff191691151591909117905560608201516003820155608090910151600490910155600580546001810182556000829052825183927f036b6384b5eca791c62761152d0c79bb0604c104a5fb6f4eb0703f3154bb3db092029190910190819062000ad5908262001c41565b506020820151600182019062000aec908262001c41565b5060408281015160028301805460ff19169115159190911790556060830151600383015560809092015160049091015560065490517ffb591a62cc32f64694fd051b543d434a5a05f50fee72e157400db204d2ace7199162000b52918891889162001d3b565b60405180910390a16006805490600062000b6c8362001d8b565b9190505550600160065462000b82919062001da7565b95945050505050565b600062000bd06040518060e001604052806060815260200160608152602001600081526020016000815260200160001515815260200160008152602001600081525090565b858152602081018590528215156080820152604080820185905260a08201889052600b5460c08301525160079062000c0a908a9062001b7e565b9081526040519081900360209081018220600b54815460018101835560009283529290912090910155819060089062000c4590899062001b7e565b9081526040519081900360200190208151819062000c64908262001c41565b506020820151600182019062000c7b908262001c41565b50604082810151600283015560608301516003830155608083015160048301805460ff191691151591909117905560a0830151600583015560c090920151600690910155600b5460009081526009602052208151829190819062000ce0908262001c41565b506020820151600182019062000cf7908262001c41565b506040820151600282015560608201516003820155608082015160048201805491151560ff1990921691909117905560a0820151600582015560c090910151600690910155600a8054600181018255600091909152815182916007027fc65a7bb8d6351c1cf70c95a316cc6a92839c986682d98bc35f958f4883f9d2a80190819062000d84908262001c41565b506020820151600182019062000d9b908262001c41565b50604082810151600283015560608301516003830155608083015160048301805460ff191691151591909117905560a0830151600583015560c090920151600690910155600b5490517f57da1c1d09799d711292a20228ab743bdc787c13695e84a81043787b1f5e8e669162000e1991899189918d908d9062001dbd565b60405180910390a1600b805490600062000e338362001d8b565b91905055506001600b5462000e49919062001da7565b98975050505050505050565b600062000e7c60405180606001604052806060815260200160008152602001600081525090565b8381526020810183905260145460408083019190915251819060119062000ea590879062001b7e565b9081526040519081900360200190208151819062000ec4908262001c41565b50602082810151600183015560409283015160029092019190915560145460009081526012909152208151829190819062000f00908262001c41565b506020820151600180830191909155604090920151600290910155601380549182018155600052815182916003027f66de8ffda797e3de9c05e8fc57b3bf0ec28a930d40b0d285d93c06501cf6a0900190819062000f5f908262001c41565b50602082015181600101556040820151816002015550507fd8b756318acf73eeed189522277be650063903bad94f87185a0e9c89a558241a8460145460405162000fab92919062001e15565b60405180910390a16014805490600062000fc58362001d8b565b9190505550600160145462000fdb919062001da7565b9150505b92915050565b60006200101a6040518060a0016040528060608152602001606081526020016000815260200160008152602001600081525090565b8581526020808201869052604080830186905260608301859052601054608084015260008581526009909252908190209051600c916200105a9162001e39565b90815260405190819003602090810182206010548154600181018355600092835292909120909101558190600d906200109590899062001b7e565b90815260405190819003602001902081518190620010b4908262001c41565b5060208201516001820190620010cb908262001c41565b506040828101516002830155606083015160038301556080909201516004909101556010546000908152600e60205220815182919081906200110e908262001c41565b506020820151600182019062001125908262001c41565b506040820151600282015560608201516003820155608090910151600490910155600f8054600181018255600091909152815182916005027f8d1108e10bcb7c27dddfc02ed9d693a074039d026cf4ea4240b40f7d581ac802019081906200118e908262001c41565b5060208201516001820190620011a5908262001c41565b5060408201518160020155606082015181600301556080820151816004015550507f386c333447eb44c8f6614622ff298dc5c66657754f3d4c8de2bd27edd9b8ea60868686866010546040516200120195949392919062001eb7565b60405180910390a1601080549060006200121b8362001d8b565b9190505550600160105462001231919062001da7565b9695505050505050565b3360009081526018602052604081205415620013405760005b336000908152601860205260409020548110156200133e57336000908152601860205260409020805485916017918490811062001295576200129562001efe565b906000526020600020015481548110620012b357620012b362001efe565b90600052602060002090600502016001015403620013295760405162461bcd60e51b815260206004820152602860248201527f5573657220616c726561647920656e726f6c6c656420696e746f20746865206360448201526768616c6c656e676560c01b60648201526084015b60405180910390fd5b80620013358162001d8b565b91505062001254565b505b600083815260096020526040812080546200135b9062001bb2565b80601f0160208091040260200160405190810160405280929190818152602001828054620013899062001bb2565b8015620013da5780601f10620013ae57610100808354040283529160200191620013da565b820191906000526020600020905b815481529060010190602001808311620013bc57829003601f168201915b505050505090508051600003620014285760405162461bcd60e51b8152602060048201526011602482015270496e76616c6964206368616c6c656e676560781b604482015260640162001320565b60008381526012602052604090208054620014439062001bb2565b80601f0160208091040260200160405190810160405280929190818152602001828054620014719062001bb2565b8015620014c25780601f106200149657610100808354040283529160200191620014c2565b820191906000526020600020905b815481529060010190602001808311620014a457829003601f168201915b5050505050905080516000036200150d5760405162461bcd60e51b815260206004820152600e60248201526d125b9d985b1a590818dbda1bdc9d60921b604482015260640162001320565b6040805160c081018252600080825260208201819052918101829052606081018290526080810182905260a08101919091528481602001818152505083816040018181525050600181606001901515908115158152505060018160800190151590811515815250503381600001906001600160a01b031690816001600160a01b03168152505060186000336001600160a01b03166001600160a01b03168152602001908152602001600020601a5490806001815401808255809150506001900390600052602060002001600090919091909150558060196000601a54815260200190815260200160002060008201518160000160006101000a8154816001600160a01b0302191690836001600160a01b03160217905550602082015181600101556040820151816002015560608201518160030160006101000a81548160ff02191690831515021790555060808201518160030160016101000a81548160ff02191690831515021790555060a08201518160040155905050601781908060018154018082558091505060019003906000526020600020906005020160009091909190915060008201518160000160006101000a8154816001600160a01b0302191690836001600160a01b03160217905550602082015181600101556040820151816002015560608201518160030160006101000a81548160ff02191690831515021790555060808201518160030160016101000a81548160ff02191690831515021790555060a0820151816004015550507f3798808d51c38fd8edfe6196d7840a8190340f2733377adc0efccb8e2e13bbcc338686601a546040516200179794939291906001600160a01b0394909416845260208401929092526040830152606082015260800190565b60405180910390a1601a8054906000620017b18362001d8b565b91905055506001601a5462000b82919062001da7565b6000808451118015620017dd5750610100845111155b620017e757600080fd5b610400835110620017f757600080fd5b600082511180156200180c5750610100825111155b6200181657600080fd5b604080516101208101825289815260208082018a905281830189905287151560608301526080820187905260a0820186905260c082018590524260e08301819052602854610100840152336000908152602683529384208054600181018255908552919093208251839260090290910190819062001895908262001c41565b506020820151600182015560408201516002820155606082015160038201805460ff191691151591909117905560808201516004820190620018d8908262001c41565b5060a08201516005820190620018ef908262001c41565b5060c0820151600682019062001906908262001c41565b5060e082015160078201556101009091015160089091015560298054600181018255600091909152815182916009027fcb7c14ce178f56e2e8d86ab33ebc0ae081ba8556a00cd122038841867181caac0190819062001966908262001c41565b506020820151600182015560408201516002820155606082015160038201805460ff191691151591909117905560808201516004820190620019a9908262001c41565b5060a08201516005820190620019c0908262001c41565b5060c08201516006820190620019d7908262001c41565b5060e082015160078201556101009091015160089091015560008981526027602090815260408220805460018101825590835291208251839260090290910190819062001a25908262001c41565b506020820151600182015560408201516002820155606082015160038201805460ff19169115159190911790556080820151600482019062001a68908262001c41565b5060a0820151600582019062001a7f908262001c41565b5060c0820151600682019062001a96908262001c41565b5060e0820151816007015561010082015181600801555050336001600160a01b03167fe15bb44a42b2cf758fad27dd27491631067d255818f0c95d160df60fe40e861c8b8b8b8b8b8b8b8a60405162001af798979695949392919062001f14565b60405180910390a26028805490600062001b118362001d8b565b9091555060019b9a5050505050505050505050565b60006020828403121562001b3957600080fd5b81516001600160a01b038116811462001b5157600080fd5b9392505050565b60005b8381101562001b7557818101518382015260200162001b5b565b50506000910152565b6000825162001b9281846020870162001b58565b9190910192915050565b634e487b7160e01b600052604160045260246000fd5b600181811c9082168062001bc757607f821691505b60208210810362001be857634e487b7160e01b600052602260045260246000fd5b50919050565b601f82111562001c3c57600081815260208120601f850160051c8101602086101562001c175750805b601f850160051c820191505b8181101562001c385782815560010162001c23565b5050505b505050565b81516001600160401b0381111562001c5d5762001c5d62001b9c565b62001c758162001c6e845462001bb2565b8462001bee565b602080601f83116001811462001cad576000841562001c945750858301515b600019600386901b1c1916600185901b17855562001c38565b600085815260208120601f198616915b8281101562001cde5788860151825594840194600190910190840162001cbd565b508582101562001cfd5787850151600019600388901b60f8161c191681555b5050505050600190811b01905550565b6000815180845262001d2781602086016020860162001b58565b601f01601f19169290920160200192915050565b60608152600062001d50606083018662001d0d565b828103602084015262001d64818662001d0d565b915050826040830152949350505050565b634e487b7160e01b600052601160045260246000fd5b60006001820162001da05762001da062001d75565b5060010190565b8181038181111562000fdf5762000fdf62001d75565b60a08152600062001dd260a083018862001d0d565b828103602084015262001de6818862001d0d565b9050856040840152828103606084015262001e02818662001d0d565b9150508260808301529695505050505050565b60408152600062001e2a604083018562001d0d565b90508260208301529392505050565b600080835462001e498162001bb2565b6001828116801562001e64576001811462001e7a5762001eab565b60ff198416875282151583028701945062001eab565b8760005260208060002060005b8581101562001ea25781548a82015290840190820162001e87565b50505082870194505b50929695505050505050565b60a08152600062001ecc60a083018862001d0d565b828103602084015262001ee0818862001d0d565b60408401969096525050606081019290925260809091015292915050565b634e487b7160e01b600052603260045260246000fd5b600061010080835262001f2a8184018c62001d0d565b90508960208401528860408401528715156060840152828103608084015262001f54818862001d0d565b905082810360a084015262001f6a818762001d0d565b905082810360c084015262001f80818662001d0d565b9150508260e08301529998505050505050505050565b6144708062001fa66000396000f3fe608060405234801561001057600080fd5b50600436106102bb5760003560e01c8063779c629f11610182578063a8a54acd116100e9578063cd6e911d116100a2578063e590b56a1161007c578063e590b56a14610727578063ef545f451461073a578063f7505b8b1461074d578063ff98d45e1461075657600080fd5b8063cd6e911d146106f8578063e2af7c4f14610701578063e31a9e4f1461071457600080fd5b8063a8a54acd14610690578063af0ebed2146106a3578063b31ef534146106b6578063b3508055146106c9578063b5e4a227146106dc578063ba7d0f2f146106ef57600080fd5b80638da5cb5b1161013b5780638da5cb5b1461062c5780638f1d37761461063f57806397d3a49714610652578063987872b41461065b5780639a6b20871461065d578063a009c31f1461067057600080fd5b8063779c629f146105b75780637e29f891146105ca5780638062f9b4146105dd57806380dea36b146105e657806384856482146105f95780638bb9249d1461060c57600080fd5b806346b80a3b11610226578063629f6fa3116101df578063629f6fa31461053257806362a6cff6146105455780636d9aac62146105585780636f8c20a81461057c57806372a8c8791461058f57806374ed78d0146105a457600080fd5b806346b80a3b146104945780634b5a0434146104a957806350e25c72146104b25780635505afc6146104da5780635a2cbabc146104ed5780635f17141d1461051157600080fd5b806330955b661161027857806330955b661461038e5780633221fc39146103b957806335f5c453146103cc57806336da73d31461045b5780633ba98d411461046e5780633d7557211461048157600080fd5b806308f161a0146102c05780630d1657e8146102e8578063191be53e1461030e5780631b9705c81461033457806327d554c41461034b5780632f78f05b1461036c575b600080fd5b6102d36102ce3660046136e9565b610769565b60405190151581526020015b60405180910390f35b6102fb6102f63660046137ba565b610aa7565b6040516102df9796959493929190613823565b61032161031c3660046137ba565b610c17565b6040516102df979695949392919061387e565b61033c610d65565b6040516102df939291906138ce565b61035e610359366004613907565b610f88565b6040519081526020016102df565b61037f61037a366004613986565b6111cf565b6040516102df939291906139bb565b6001546103a1906001600160a01b031681565b6040516001600160a01b0390911681526020016102df565b61035e6103c73660046139e0565b611284565b6104206103da3660046137ba565b601960205260009081526040902080546001820154600283015460038401546004909401546001600160a01b03909316939192909160ff80821692610100909204169086565b604080516001600160a01b039097168752602087019590955293850192909252151560608401521515608083015260a082015260c0016102df565b61035e610469366004613a54565b6114c3565b61035e61047c3660046137ba565b611a35565b61037f61048f3660046137ba565b611af9565b61049c611b14565b6040516102df9190613a76565b61035e60105481565b6104c56104c0366004613ad1565b611b75565b6040516102df99989796959493929190613afb565b61035e6104e8366004613ad1565b611e09565b6105006104fb3660046137ba565b611e3a565b6040516102df959493929190613b79565b61052461051f3660046137ba565b611f7e565b6040516102df929190613bbc565b61049c610540366004613bde565b61203a565b61035e610553366004613c25565b61220a565b61056b6105663660046137ba565b612282565b6040516102df959493929190613c40565b61056b61058a3660046137ba565b6123d8565b6105976123f3565b6040516102df9190613c83565b61037f6105b23660046137ba565b6127a8565b6102fb6105c53660046137ba565b6127db565b61035e6105d8366004613d33565b612815565b61035e600b5481565b61056b6105f4366004613986565b612840565b6104c56106073660046137ba565b612866565b61061f61061a3660046137ba565b612899565b6040516102df9190613d78565b6000546103a1906001600160a01b031681565b61032161064d3660046137ba565b612b8f565b61035e601a5481565b005b61042061066b3660046137ba565b612bc2565b61068361067e366004613d33565b612c1a565b6040516102df9190613e67565b61035e61069e366004613e7a565b612d11565b61035e6106b1366004613d33565b612fc4565b6105246106c4366004613986565b613143565b61035e6106d7366004613d33565b613169565b6103216106ea366004613986565b613194565b61035e601d5481565b61035e60145481565b6104c561070f366004613a54565b6131ba565b610500610722366004613986565b6131d6565b6105006107353660046137ba565b6131fc565b61035e610748366004613f29565b61322f565b61035e60065481565b61049c610764366004613bde565b613456565b600080845111801561077e5750610100845111155b61078757600080fd5b61040083511061079657600080fd5b600082511180156107aa5750610100825111155b6107b357600080fd5b604080516101208101825289815260208082018a905281830189905287151560608301526080820187905260a0820186905260c082018590524260e083018190526028546101008401523360009081526026835293842080546001810182559085529190932082518392600902909101908190610830908261402a565b506020820151600182015560408201516002820155606082015160038201805460ff191691151591909117905560808201516004820190610871908261402a565b5060a08201516005820190610886908261402a565b5060c0820151600682019061089b908261402a565b5060e082015160078201556101009091015160089091015560298054600181018255600091909152815182916009027fcb7c14ce178f56e2e8d86ab33ebc0ae081ba8556a00cd122038841867181caac019081906108f9908261402a565b506020820151600182015560408201516002820155606082015160038201805460ff19169115159190911790556080820151600482019061093a908261402a565b5060a0820151600582019061094f908261402a565b5060c08201516006820190610964908261402a565b5060e08201516007820155610100909101516008909101556000898152602760209081526040822080546001810182559083529120825183926009029091019081906109b0908261402a565b506020820151600182015560408201516002820155606082015160038201805460ff1916911515919091179055608082015160048201906109f1908261402a565b5060a08201516005820190610a06908261402a565b5060c08201516006820190610a1b908261402a565b5060e0820151816007015561010082015181600801555050336001600160a01b03167fe15bb44a42b2cf758fad27dd27491631067d255818f0c95d160df60fe40e861c8b8b8b8b8b8b8b8a604051610a7a9897969594939291906140ea565b60405180910390a260288054906000610a928361417a565b9091555060019b9a5050505050505050505050565b601c8181548110610ab757600080fd5b600091825260209091206007909102018054600182015460028301546003840180546001600160a01b03909416955091939092909190610af690613fa1565b80601f0160208091040260200160405190810160405280929190818152602001828054610b2290613fa1565b8015610b6f5780601f10610b4457610100808354040283529160200191610b6f565b820191906000526020600020905b815481529060010190602001808311610b5257829003601f168201915b505050505090806004018054610b8490613fa1565b80601f0160208091040260200160405190810160405280929190818152602001828054610bb090613fa1565b8015610bfd5780601f10610bd257610100808354040283529160200191610bfd565b820191906000526020600020905b815481529060010190602001808311610be057829003601f168201915b50505050600583015460069093015491929160ff16905087565b600960205260009081526040902080548190610c3290613fa1565b80601f0160208091040260200160405190810160405280929190818152602001828054610c5e90613fa1565b8015610cab5780601f10610c8057610100808354040283529160200191610cab565b820191906000526020600020905b815481529060010190602001808311610c8e57829003601f168201915b505050505090806001018054610cc090613fa1565b80601f0160208091040260200160405190810160405280929190818152602001828054610cec90613fa1565b8015610d395780601f10610d0e57610100808354040283529160200191610d39565b820191906000526020600020905b815481529060010190602001808311610d1c57829003601f168201915b50505060028401546003850154600486015460058701546006909701549596929591945060ff16925087565b60608060606016600081548110610d7e57610d7e614193565b90600052602060002090600202016000016016600181548110610da357610da3614193565b90600052602060002090600202016000016016600281548110610dc857610dc8614193565b9060005260206000209060020201600001828054610de590613fa1565b80601f0160208091040260200160405190810160405280929190818152602001828054610e1190613fa1565b8015610e5e5780601f10610e3357610100808354040283529160200191610e5e565b820191906000526020600020905b815481529060010190602001808311610e4157829003601f168201915b50505050509250818054610e7190613fa1565b80601f0160208091040260200160405190810160405280929190818152602001828054610e9d90613fa1565b8015610eea5780601f10610ebf57610100808354040283529160200191610eea565b820191906000526020600020905b815481529060010190602001808311610ecd57829003601f168201915b50505050509150808054610efd90613fa1565b80601f0160208091040260200160405190810160405280929190818152602001828054610f2990613fa1565b8015610f765780601f10610f4b57610100808354040283529160200191610f76565b820191906000526020600020905b815481529060010190602001808311610f5957829003601f168201915b50505050509050925092509250909192565b6040805160e081018252600060c082018190523382526020808301898152838501898152606085018981526080860189905260a08601889052601d548552601b909352948320845181546001600160a01b0319166001600160a01b0390911617815590516001820155935160028501555190928291600382019061100c908261402a565b5060808201516004820190611021908261402a565b5060a0820151600582015560c0909101516006909101805460ff1916911515919091179055601c805460018101825560009190915281517f0e4562a10381dec21b205ed72637e6b1b523bdd0e4d4d50af5cd23dd4500a211600790920291820180546001600160a01b0319166001600160a01b0390921691909117815560208301517f0e4562a10381dec21b205ed72637e6b1b523bdd0e4d4d50af5cd23dd4500a21283015560408301517f0e4562a10381dec21b205ed72637e6b1b523bdd0e4d4d50af5cd23dd4500a213830155606083015183927f0e4562a10381dec21b205ed72637e6b1b523bdd0e4d4d50af5cd23dd4500a2140190611124908261402a565b5060808201516004820190611139908261402a565b5060a0820151600582015560c0909101516006909101805460ff19169115159190911790556040517fbc21f23f9e1a2117be6607b9b778d16a66cceb5df1cacb4e3f3923a2aeea9c69906111989033908a908a908a908a908a906141a9565b60405180910390a1601d80549060006111b08361417a565b91905055506001601d546111c491906141fc565b979650505050505050565b80516020818301810180516011825292820191909301209152805481906111f590613fa1565b80601f016020809104026020016040519081016040528092919081815260200182805461122190613fa1565b801561126e5780601f106112435761010080835404028352916020019161126e565b820191906000526020600020905b81548152906001019060200180831161125157829003601f168201915b5050505050908060010154908060020154905083565b60006112b86040518060a0016040528060608152602001606081526020016000815260200160008152602001600081525090565b8581526020808201869052604080830186905260608301859052601054608084015260008581526009909252908190209051600c916112f69161420f565b90815260405190819003602090810182206010548154600181018355600092835292909120909101558190600d9061132f908990614285565b9081526040519081900360200190208151819061134c908261402a565b5060208201516001820190611361908261402a565b506040828101516002830155606083015160038301556080909201516004909101556010546000908152600e60205220815182919081906113a2908261402a565b50602082015160018201906113b7908261402a565b506040820151600282015560608201516003820155608090910151600490910155600f8054600181018255600091909152815182916005027f8d1108e10bcb7c27dddfc02ed9d693a074039d026cf4ea4240b40f7d581ac8020190819061141e908261402a565b5060208201516001820190611433908261402a565b5060408201518160020155606082015181600301556080820151816004015550507f386c333447eb44c8f6614622ff298dc5c66657754f3d4c8de2bd27edd9b8ea608686868660105460405161148d959493929190613c40565b60405180910390a1601080549060006114a58361417a565b919050555060016010546114b991906141fc565b9695505050505050565b33600090815260186020526040812054156115bc5760005b336000908152601860205260409020548110156115ba57336000908152601860205260409020805485916017918490811061151857611518614193565b90600052602060002001548154811061153357611533614193565b906000526020600020906005020160010154036115a85760405162461bcd60e51b815260206004820152602860248201527f5573657220616c726561647920656e726f6c6c656420696e746f20746865206360448201526768616c6c656e676560c01b60648201526084015b60405180910390fd5b806115b28161417a565b9150506114db565b505b600083815260096020526040812080546115d590613fa1565b80601f016020809104026020016040519081016040528092919081815260200182805461160190613fa1565b801561164e5780601f106116235761010080835404028352916020019161164e565b820191906000526020600020905b81548152906001019060200180831161163157829003601f168201915b50505050509050805160000361169a5760405162461bcd60e51b8152602060048201526011602482015270496e76616c6964206368616c6c656e676560781b604482015260640161159f565b600083815260126020526040902080546116b390613fa1565b80601f01602080910402602001604051908101604052809291908181526020018280546116df90613fa1565b801561172c5780601f106117015761010080835404028352916020019161172c565b820191906000526020600020905b81548152906001019060200180831161170f57829003601f168201915b5050505050905080516000036117755760405162461bcd60e51b815260206004820152600e60248201526d125b9d985b1a590818dbda1bdc9d60921b604482015260640161159f565b6040805160c081018252600080825260208201819052918101829052606081018290526080810182905260a08101919091528481602001818152505083816040018181525050600181606001901515908115158152505060018160800190151590811515815250503381600001906001600160a01b031690816001600160a01b03168152505060186000336001600160a01b03166001600160a01b03168152602001908152602001600020601a5490806001815401808255809150506001900390600052602060002001600090919091909150558060196000601a54815260200190815260200160002060008201518160000160006101000a8154816001600160a01b0302191690836001600160a01b03160217905550602082015181600101556040820151816002015560608201518160030160006101000a81548160ff02191690831515021790555060808201518160030160016101000a81548160ff02191690831515021790555060a08201518160040155905050601781908060018154018082558091505060019003906000526020600020906005020160009091909190915060008201518160000160006101000a8154816001600160a01b0302191690836001600160a01b03160217905550602082015181600101556040820151816002015560608201518160030160006101000a81548160ff02191690831515021790555060808201518160030160016101000a81548160ff02191690831515021790555060a0820151816004015550507f3798808d51c38fd8edfe6196d7840a8190340f2733377adc0efccb8e2e13bbcc338686601a546040516119fe94939291906001600160a01b0394909416845260208401929092526040830152606082015260800190565b60405180910390a1601a8054906000611a168361417a565b91905055506001601a54611a2a91906141fc565b925050505b92915050565b600254602980546000926001600160a01b03169160019185908110611a5c57611a5c614193565b60009182526020909120600990910201600301805460ff191691151591909117905560405163a9059cbb60e01b8152336004820152600160248201526001600160a01b0382169063a9059cbb906044016020604051808303816000875af1158015611acb573d6000803e3d6000fd5b505050506040513d601f19601f82011682018060405250810190611aef91906142a1565b5060329392505050565b6012602052600090815260409020805481906111f590613fa1565b33600090815260186020908152604091829020805483518184028101840190945280845260609392830182828015611b6b57602002820191906000526020600020905b815481526020019060010190808311611b57575b5050505050905090565b60266020528160005260406000208181548110611b9157600080fd5b906000526020600020906009020160009150915050806000018054611bb590613fa1565b80601f0160208091040260200160405190810160405280929190818152602001828054611be190613fa1565b8015611c2e5780601f10611c0357610100808354040283529160200191611c2e565b820191906000526020600020905b815481529060010190602001808311611c1157829003601f168201915b5050506001840154600285015460038601546004870180549697939692955060ff909116935090611c5e90613fa1565b80601f0160208091040260200160405190810160405280929190818152602001828054611c8a90613fa1565b8015611cd75780601f10611cac57610100808354040283529160200191611cd7565b820191906000526020600020905b815481529060010190602001808311611cba57829003601f168201915b505050505090806005018054611cec90613fa1565b80601f0160208091040260200160405190810160405280929190818152602001828054611d1890613fa1565b8015611d655780601f10611d3a57610100808354040283529160200191611d65565b820191906000526020600020905b815481529060010190602001808311611d4857829003601f168201915b505050505090806006018054611d7a90613fa1565b80601f0160208091040260200160405190810160405280929190818152602001828054611da690613fa1565b8015611df35780601f10611dc857610100808354040283529160200191611df3565b820191906000526020600020905b815481529060010190602001808311611dd657829003601f168201915b5050505050908060070154908060080154905089565b60186020528160005260406000208181548110611e2557600080fd5b90600052602060002001600091509150505481565b600460205260009081526040902080548190611e5590613fa1565b80601f0160208091040260200160405190810160405280929190818152602001828054611e8190613fa1565b8015611ece5780601f10611ea357610100808354040283529160200191611ece565b820191906000526020600020905b815481529060010190602001808311611eb157829003601f168201915b505050505090806001018054611ee390613fa1565b80601f0160208091040260200160405190810160405280929190818152602001828054611f0f90613fa1565b8015611f5c5780601f10611f3157610100808354040283529160200191611f5c565b820191906000526020600020905b815481529060010190602001808311611f3f57829003601f168201915b5050505060028301546003840154600490940154929360ff9091169290915085565b60168181548110611f8e57600080fd5b9060005260206000209060020201600091509050806000018054611fb190613fa1565b80601f0160208091040260200160405190810160405280929190818152602001828054611fdd90613fa1565b801561202a5780601f10611fff5761010080835404028352916020019161202a565b820191906000526020600020905b81548152906001019060200180831161200d57829003601f168201915b5050505050908060010154905082565b6060600060038360405161204e9190614285565b908152604051908190036020019020805461206890613fa1565b80601f016020809104026020016040519081016040528092919081815260200182805461209490613fa1565b80156120e15780601f106120b6576101008083540402835291602001916120e1565b820191906000526020600020905b8154815290600101906020018083116120c457829003601f168201915b5050505050905080516000036121325760405162461bcd60e51b815260206004820152601660248201527518dbdb5b5d5b9a5d1e48191bd95cdb9d08195e1a5cdd60521b604482015260640161159f565b836003846040516121439190614285565b9081526020016040518091039020600401541461219a5760405162461bcd60e51b8152602060048201526015602482015274496e76616c696420636f6d6d756e697479206b657960581b604482015260640161159f565b6007836040516121aa9190614285565b90815260408051918290036020908101832080548083028501830190935282845291908301828280156121fc57602002820191906000526020600020905b8154815260200190600101908083116121e8575b505050505091505092915050565b6002546040516370a0823160e01b81526001600160a01b038381166004830152600092169081906370a0823190602401602060405180830381865afa158015612257573d6000803e3d6000fd5b505050506040513d601f19601f8201168201806040525081019061227b91906142be565b9392505050565b600f818154811061229257600080fd5b90600052602060002090600502016000915090508060000180546122b590613fa1565b80601f01602080910402602001604051908101604052809291908181526020018280546122e190613fa1565b801561232e5780601f106123035761010080835404028352916020019161232e565b820191906000526020600020905b81548152906001019060200180831161231157829003601f168201915b50505050509080600101805461234390613fa1565b80601f016020809104026020016040519081016040528092919081815260200182805461236f90613fa1565b80156123bc5780601f10612391576101008083540402835291602001916123bc565b820191906000526020600020905b81548152906001019060200180831161239f57829003601f168201915b5050505050908060020154908060030154908060040154905085565b600e602052600090815260409020805481906122b590613fa1565b336000908152601860205260409020805460609161241491601e91906135c0565b5060005b601e548110156125fc57601e818154811061243557612435614193565b60009182526020918290200154601f81905581546001600160a01b031916331790915560178054600a9290811061246e5761246e614193565b9060005260206000209060050201600101548154811061249057612490614193565b600091825260209091206021916124ad91600790910201826142d7565b50600a6017601f54815481106124c5576124c5614193565b906000526020600020906005020160010154815481106124e7576124e7614193565b90600052602060002090600702016001016020600201908161250991906142d7565b50601f54602381905560178054909190811061252757612527614193565b60009182526020808320600160059384029091018101546024556025805491820181559093528054929091027f401968ff42a154441da5f6c4c935ac46b8671f0e062baaa62a7545ba53bb6e4c810180546001600160a01b0319166001600160a01b039094169390931783559091907f401968ff42a154441da5f6c4c935ac46b8671f0e062baaa62a7545ba53bb6e4d016125c36021826142d7565b506002818101906125d6908401826142d7565b5060038281015490820155600491820154910155806125f48161417a565b915050612418565b506025805480602002602001604051908101604052809291908181526020016000905b8282101561279f5760008481526020908190206040805160a081019091526005850290910180546001600160a01b03168252600181018054929391929184019161266890613fa1565b80601f016020809104026020016040519081016040528092919081815260200182805461269490613fa1565b80156126e15780601f106126b6576101008083540402835291602001916126e1565b820191906000526020600020905b8154815290600101906020018083116126c457829003601f168201915b505050505081526020016002820180546126fa90613fa1565b80601f016020809104026020016040519081016040528092919081815260200182805461272690613fa1565b80156127735780601f1061274857610100808354040283529160200191612773565b820191906000526020600020905b81548152906001019060200180831161275657829003601f168201915b50505050508152602001600382015481526020016004820154815250508152602001906001019061261f565b50505050905090565b601381815481106127b857600080fd5b90600052602060002090600302016000915090508060000180546111f590613fa1565b601b6020526000908152604090208054600182015460028301546003840180546001600160a01b03909416949293919291610af690613fa1565b81516020818401810180516007825292820191850191909120919052805482908110611e2557600080fd5b8051602081830181018051600d825292820191909301209152805481906122b590613fa1565b6029818154811061287657600080fd5b9060005260206000209060090201600091509050806000018054611bb590613fa1565b606060276000838152602001908152602001600020805480602002602001604051908101604052809291908181526020016000905b82821015612b8457838290600052602060002090600902016040518061012001604052908160008201805461290290613fa1565b80601f016020809104026020016040519081016040528092919081815260200182805461292e90613fa1565b801561297b5780601f106129505761010080835404028352916020019161297b565b820191906000526020600020905b81548152906001019060200180831161295e57829003601f168201915b50505091835250506001820154602082015260028201546040820152600382015460ff16151560608201526004820180546080909201916129bb90613fa1565b80601f01602080910402602001604051908101604052809291908181526020018280546129e790613fa1565b8015612a345780601f10612a0957610100808354040283529160200191612a34565b820191906000526020600020905b815481529060010190602001808311612a1757829003601f168201915b50505050508152602001600582018054612a4d90613fa1565b80601f0160208091040260200160405190810160405280929190818152602001828054612a7990613fa1565b8015612ac65780601f10612a9b57610100808354040283529160200191612ac6565b820191906000526020600020905b815481529060010190602001808311612aa957829003601f168201915b50505050508152602001600682018054612adf90613fa1565b80601f0160208091040260200160405190810160405280929190818152602001828054612b0b90613fa1565b8015612b585780601f10612b2d57610100808354040283529160200191612b58565b820191906000526020600020905b815481529060010190602001808311612b3b57829003601f168201915b5050505050815260200160078201548152602001600882015481525050815260200190600101906128ce565b505050509050919050565b600a8181548110612b9f57600080fd5b9060005260206000209060070201600091509050806000018054610c3290613fa1565b60178181548110612bd257600080fd5b6000918252602090912060059091020180546001820154600283015460038401546004909401546001600160a01b0390931694509092909160ff808316926101009004169086565b6060612c39604051806040016040528060608152602001600081525090565b838152602081018390526040518190601590612c56908790614285565b90815260405190819003602001902081518190612c73908261402a565b5060209190910151600191820155601680549182018155600052815182916002027fd833147d7dc355ba459fc788f669e58cfaf9dc25ddcd0702e87d69c7b512428901908190612cc3908261402a565b506020820151816001015550507fc6ca801e8cd9f1cc24841ec846d513c26062cfcbf775e3f8d97231bb8b68dbba8484604051612d01929190613bbc565b60405180910390a1509192915050565b6000612d556040518060e001604052806060815260200160608152602001600081526020016000815260200160001515815260200160008152602001600081525090565b858152602081018590528215156080820152604080820185905260a08201889052600b5460c083015251600790612d8d908a90614285565b9081526040519081900360209081018220600b548154600181018355600092835292909120909101558190600890612dc6908990614285565b90815260405190819003602001902081518190612de3908261402a565b5060208201516001820190612df8908261402a565b50604082810151600283015560608301516003830155608083015160048301805460ff191691151591909117905560a0830151600583015560c090920151600690910155600b54600090815260096020522081518291908190612e5b908261402a565b5060208201516001820190612e70908261402a565b506040820151600282015560608201516003820155608082015160048201805491151560ff1990921691909117905560a0820151600582015560c090910151600690910155600a8054600181018255600091909152815182916007027fc65a7bb8d6351c1cf70c95a316cc6a92839c986682d98bc35f958f4883f9d2a801908190612efb908261402a565b5060208201516001820190612f10908261402a565b50604082810151600283015560608301516003830155608083015160048301805460ff191691151591909117905560a0830151600583015560c090920151600690910155600b5490517f57da1c1d09799d711292a20228ab743bdc787c13695e84a81043787b1f5e8e6691612f8c91899189918d908d906143b2565b60405180910390a1600b8054906000612fa48361417a565b91905055506001600b54612fb891906141fc565b98975050505050505050565b6000612fea60405180606001604052806060815260200160008152602001600081525090565b83815260208101839052601454604080830191909152518190601190613011908790614285565b9081526040519081900360200190208151819061302e908261402a565b506020828101516001830155604092830151600290920191909155601454600090815260129091522081518291908190613068908261402a565b506020820151600180830191909155604090920151600290910155601380549182018155600052815182916003027f66de8ffda797e3de9c05e8fc57b3bf0ec28a930d40b0d285d93c06501cf6a090019081906130c5908261402a565b50602082015181600101556040820151816002015550507fd8b756318acf73eeed189522277be650063903bad94f87185a0e9c89a558241a8460145460405161310f929190613bbc565b60405180910390a1601480549060006131278361417a565b9190505550600160145461313b91906141fc565b949350505050565b8051602081830181018051601582529282019190930120915280548190611fb190613fa1565b8151602081840181018051600c825292820191850191909120919052805482908110611e2557600080fd5b8051602081830181018051600882529282019190930120915280548190610c3290613fa1565b60276020528160005260406000208181548110611b9157600080fd5b8051602081830181018051600382529282019190930120915280548190611e5590613fa1565b6005818154811061320c57600080fd5b9060005260206000209060050201600091509050806000018054611e5590613fa1565b60006132656040518060a00160405280606081526020016060815260200160001515815260200160008152602001600081525090565b8481526020810184905282151560408083019190915260006060830152600654608083015251819060039061329b908890614285565b908152604051908190036020019020815181906132b8908261402a565b50602082015160018201906132cd908261402a565b5060408281015160028301805460ff1916911515919091179055606083015160038301556080909201516004918201556006546000908152602091909152208151829190819061331d908261402a565b5060208201516001820190613332908261402a565b50604082015160028201805460ff191691151591909117905560608201516003820155608090910151600490910155600580546001810182556000829052825183927f036b6384b5eca791c62761152d0c79bb0604c104a5fb6f4eb0703f3154bb3db09202919091019081906133a8908261402a565b50602082015160018201906133bd908261402a565b5060408281015160028301805460ff19169115159190911790556060830151600383015560809092015160049091015560065490517ffb591a62cc32f64694fd051b543d434a5a05f50fee72e157400db204d2ace719916134219188918891614404565b60405180910390a1600680549060006134398361417a565b9190505550600160065461344d91906141fc565b95945050505050565b6060600060088360405161346a9190614285565b908152604051908190036020019020805461348490613fa1565b80601f01602080910402602001604051908101604052809291908181526020018280546134b090613fa1565b80156134fd5780601f106134d2576101008083540402835291602001916134fd565b820191906000526020600020905b8154815290600101906020018083116134e057829003601f168201915b50505050509050805160000361354b5760405162461bcd60e51b81526020600482015260136024820152721b595d1c9a58c8191bd95cdb9d08195e1a5cdd606a1b604482015260640161159f565b8360088460405161355c9190614285565b908152602001604051809103902060060154146135b05760405162461bcd60e51b8152602060048201526012602482015271496e76616c6964206d6574726963206b657960701b604482015260640161159f565b600c836040516121aa9190614285565b8280548282559060005260206000209081019282156136005760005260206000209182015b828111156136005782548255916001019190600101906135e5565b5061360c929150613610565b5090565b5b8082111561360c5760008155600101613611565b634e487b7160e01b600052604160045260246000fd5b600082601f83011261364c57600080fd5b813567ffffffffffffffff8082111561366757613667613625565b604051601f8301601f19908116603f0116810190828211818310171561368f5761368f613625565b816040528381528660208588010111156136a857600080fd5b836020870160208301376000602085830101528094505050505092915050565b80151581146136d657600080fd5b50565b80356136e4816136c8565b919050565b600080600080600080600060e0888a03121561370457600080fd5b873567ffffffffffffffff8082111561371c57600080fd5b6137288b838c0161363b565b985060208a0135975060408a0135965061374460608b016136d9565b955060808a013591508082111561375a57600080fd5b6137668b838c0161363b565b945060a08a013591508082111561377c57600080fd5b6137888b838c0161363b565b935060c08a013591508082111561379e57600080fd5b506137ab8a828b0161363b565b91505092959891949750929550565b6000602082840312156137cc57600080fd5b5035919050565b60005b838110156137ee5781810151838201526020016137d6565b50506000910152565b6000815180845261380f8160208601602086016137d3565b601f01601f19169290920160200192915050565b60018060a01b038816815286602082015285604082015260e06060820152600061385060e08301876137f7565b828103608084015261386281876137f7565b60a0840195909552505090151560c09091015295945050505050565b60e08152600061389160e083018a6137f7565b82810360208401526138a3818a6137f7565b604084019890985250506060810194909452911515608084015260a083015260c09091015292915050565b6060815260006138e160608301866137f7565b82810360208401526138f381866137f7565b905082810360408401526114b981856137f7565b600080600080600060a0868803121561391f57600080fd5b8535945060208601359350604086013567ffffffffffffffff8082111561394557600080fd5b61395189838a0161363b565b9450606088013591508082111561396757600080fd5b506139748882890161363b565b95989497509295608001359392505050565b60006020828403121561399857600080fd5b813567ffffffffffffffff8111156139af57600080fd5b61313b8482850161363b565b6060815260006139ce60608301866137f7565b60208301949094525060400152919050565b600080600080608085870312156139f657600080fd5b843567ffffffffffffffff80821115613a0e57600080fd5b613a1a8883890161363b565b95506020870135915080821115613a3057600080fd5b50613a3d8782880161363b565b949794965050505060408301359260600135919050565b60008060408385031215613a6757600080fd5b50508035926020909101359150565b6020808252825182820181905260009190848201906040850190845b81811015613aae57835183529284019291840191600101613a92565b50909695505050505050565b80356001600160a01b03811681146136e457600080fd5b60008060408385031215613ae457600080fd5b613aed83613aba565b946020939093013593505050565b6000610120808352613b0f8184018d6137f7565b90508a602084015289604084015288151560608401528281036080840152613b3781896137f7565b905082810360a0840152613b4b81886137f7565b905082810360c0840152613b5f81876137f7565b60e084019590955250506101000152979650505050505050565b60a081526000613b8c60a08301886137f7565b8281036020840152613b9e81886137f7565b95151560408401525050606081019290925260809091015292915050565b604081526000613bcf60408301856137f7565b90508260208301529392505050565b60008060408385031215613bf157600080fd5b82359150602083013567ffffffffffffffff811115613c0f57600080fd5b613c1b8582860161363b565b9150509250929050565b600060208284031215613c3757600080fd5b61227b82613aba565b60a081526000613c5360a08301886137f7565b8281036020840152613c6581886137f7565b60408401969096525050606081019290925260809091015292915050565b60006020808301818452808551808352604092508286019150828160051b87010184880160005b83811015613d2557888303603f19018552815180516001600160a01b031684528781015160a089860181905290613ce3828701826137f7565b9150508782015185820389870152613cfb82826137f7565b60608481015190880152608093840151939096019290925250509386019390860190600101613caa565b509098975050505050505050565b60008060408385031215613d4657600080fd5b823567ffffffffffffffff811115613d5d57600080fd5b613d698582860161363b565b95602094909401359450505050565b60006020808301818452808551808352604092508286019150828160051b87010184880160005b83811015613d2557603f1989840301855281516101208151818652613dc6828701826137f7565b91505088820151898601528782015188860152606080830151613dec8288018215159052565b505060808083015186830382880152613e0583826137f7565b9250505060a08083015186830382880152613e2083826137f7565b9250505060c08083015186830382880152613e3b83826137f7565b60e085810151908901526101009485015194909701939093525050509386019390860190600101613d9f565b60208152600061227b60208301846137f7565b60008060008060008060c08789031215613e9357600080fd5b863567ffffffffffffffff80821115613eab57600080fd5b613eb78a838b0161363b565b9750602089013596506040890135915080821115613ed457600080fd5b613ee08a838b0161363b565b95506060890135915080821115613ef657600080fd5b50613f0389828a0161363b565b9350506080870135915060a0870135613f1b816136c8565b809150509295509295509295565b600080600060608486031215613f3e57600080fd5b833567ffffffffffffffff80821115613f5657600080fd5b613f628783880161363b565b94506020860135915080821115613f7857600080fd5b50613f858682870161363b565b9250506040840135613f96816136c8565b809150509250925092565b600181811c90821680613fb557607f821691505b602082108103613fd557634e487b7160e01b600052602260045260246000fd5b50919050565b601f82111561402557600081815260208120601f850160051c810160208610156140025750805b601f850160051c820191505b818110156140215782815560010161400e565b5050505b505050565b815167ffffffffffffffff81111561404457614044613625565b614058816140528454613fa1565b84613fdb565b602080601f83116001811461408d57600084156140755750858301515b600019600386901b1c1916600185901b178555614021565b600085815260208120601f198616915b828110156140bc5788860151825594840194600190910190840161409d565b50858210156140da5787850151600019600388901b60f8161c191681555b5050505050600190811b01905550565b60006101008083526140fe8184018c6137f7565b90508960208401528860408401528715156060840152828103608084015261412681886137f7565b905082810360a084015261413a81876137f7565b905082810360c084015261414e81866137f7565b9150508260e08301529998505050505050505050565b634e487b7160e01b600052601160045260246000fd5b60006001820161418c5761418c614164565b5060010190565b634e487b7160e01b600052603260045260246000fd5b60018060a01b038716815285602082015284604082015260c0606082015260006141d660c08301866137f7565b82810360808401526141e881866137f7565b9150508260a0830152979650505050505050565b81810381811115611a2f57611a2f614164565b600080835461421d81613fa1565b60018281168015614235576001811461424a57614279565b60ff1984168752821515830287019450614279565b8760005260208060002060005b858110156142705781548a820152908401908201614257565b50505082870194505b50929695505050505050565b600082516142978184602087016137d3565b9190910192915050565b6000602082840312156142b357600080fd5b815161227b816136c8565b6000602082840312156142d057600080fd5b5051919050565b8181036142e2575050565b6142ec8254613fa1565b67ffffffffffffffff81111561430457614304613625565b614312816140528454613fa1565b6000601f821160018114614346576000831561432e5750848201545b600019600385901b1c1916600184901b1784556143ab565b600085815260209020601f19841690600086815260209020845b838110156143805782860154825560019586019590910190602001614360565b508583101561439e5781850154600019600388901b60f8161c191681555b50505060018360011b0184555b5050505050565b60a0815260006143c560a08301886137f7565b82810360208401526143d781886137f7565b905085604084015282810360608401526143f181866137f7565b9150508260808301529695505050505050565b60608152600061441760608301866137f7565b828103602084015261442981866137f7565b91505082604083015294935050505056fea26469706673582212203e59e8aadd1c74c8e25fbcc49e9a86905290b87c684e09af78af8c0853fdf51b64736f6c63430008110033506572736f6e616c2057656c6c6e65737300000000000000000000000000000053656e64206c696e6b7320746f20626c6f6720776974682061746c656173742033206c696b65732f636f6d6d656e74735265636f7264207468652074696d65206f6620726973652020616e642070696374757265206f66207761746368436f6d6d756e6974792047726f757020666f63757373696e67206f6e20206d696e6466756c206c6976696e67507261637469636520746563686e697175657320746861742068656c707320796f7520746f206265636f6d65206561726c7920726169736572436f6d6d756e6974792047726f757020666f63757373696e67206f6e2020706572736f6e616c206566666563746976656e657373507261637469636520746563686e697175657320746861742068656c707320746f206170706c79206765742066696e616e6369616c2066726565646f6d436f6d6d756e6974792047726f757020666f63757373696e67206f6e20206275696c64696e67206c6966656c6f6e67207468726976696e672072656c6174696f6e736869707325206f6620646566696e656420676f616c7320616368696576656420696e203530206d696e73417070726563696174696f6e2066726f6d20746561636865722f696e7374727563746f722f6d656e746f725265636f7264207468652074696d6520776974682074686520617474656e64616e636520746f2047796d20636c617373507261637469636520746563686e697175657320746861742068656c707320796f7520746f206265636f6d6520666f63757373656420617420796f757220776f726b20616e6420616368696576696e6720796f757220676f616c4d616e61676520746f206b6565702d7570207468652070726f6d69736520746f206d7973656c66507261637469636520746563686e697175657320746861742068656c707320796f7520746f206265636f6d6520636f6e73697374656e7420616e64206e6f74206d697373206f7574206f6e20796f7572206461696c7920706c616e6e6564207363686564756c6573436f6d6d756e6974792047726f757020666f63757373696e67206f6e202046696e616e6369616c2077656c6c6265696e675265636f7264207468652074696d65206f662072697365207769746820612070696374757265206f6e2061207075626c696320636c6f636b207468617420646973706c617973206461746520616e642074696d65",
    "linkReferences": {}
  },
  "methodIdentifiers": {
    "ChallengeNameToMetric(string,uint256)": "b3508055",
    "CommunityNameToChallenge(string,uint256)": "7e29f891",
    "accumulatePointsByUser()": "987872b4",
    "activities(uint256)": "0d1657e8",
    "activityKey()": "ba7d0f2f",
    "challengeKey()": "8062f9b4",
    "challenges(uint256)": "8f1d3776",
    "cohortKey()": "cd6e911d",
    "cohorts(uint256)": "74ed78d0",
    "communities(uint256)": "e590b56a",
    "communityKey()": "f7505b8b",
    "enrollIntoChallenge(uint256,uint256)": "36da73d3",
    "enrollmentIdToImages(uint256,uint256)": "e2af7c4f",
    "enrollmentKey()": "97d3a497",
    "enrollments(uint256)": "9a6b2087",
    "hera()": "30955b66",
    "images(uint256)": "84856482",
    "indexKeyToActivity(uint256)": "779c629f",
    "indexKeyToChallenge(uint256)": "191be53e",
    "indexKeyToCohort(uint256)": "3d755721",
    "indexKeyToCommunity(uint256)": "5a2cbabc",
    "indexKeyToEnrollment(uint256)": "35f5c453",
    "indexKeyToMetric(uint256)": "6f8c20a8",
    "insertActivity(uint256,uint256,string,string,uint256)": "27d554c4",
    "insertChallenge(string,uint256,string,string,uint256,bool)": "a8a54acd",
    "insertCohort(string,uint256)": "af0ebed2",
    "insertCommunity(string,string,bool)": "ef545f45",
    "insertMetric(string,string,uint256,uint256)": "3221fc39",
    "insertNFTRules(string,uint256)": "a009c31f",
    "metricKey()": "4b5a0434",
    "metrics(uint256)": "6d9aac62",
    "nameToChallenge(string)": "b5e4a227",
    "nameToCohort(string)": "2f78f05b",
    "nameToCommunity(string)": "e31a9e4f",
    "nameToMetric(string)": "80dea36b",
    "nameToNFTRule(string)": "b31ef534",
    "nftrules(uint256)": "5f17141d",
    "owner()": "8da5cb5b",
    "ownerToEnrollments(address,uint256)": "5505afc6",
    "ownerToImages(address,uint256)": "50e25c72",
    "uploadImage(string,uint256,uint256,bool,string,string,string)": "08f161a0",
    "validateActivity(uint256)": "3ba98d41",
    "viewActivitybyEnrollment(uint256)": "8bb9249d",
    "viewChallengebyCommunity(uint256,string)": "629f6fa3",
    "viewEnrollmentsbyUser()": "46b80a3b",
    "viewEnrollmentsbyUserFe()": "72a8c879",
    "viewMetricbyChallenge(uint256,string)": "ff98d45e",
    "viewNFTRules()": "1b9705c8",
    "viewPointBalances(address)": "62a6cff6"
  },
  "id": 22
}