{
  "abi": [
    {
      "inputs": [],
      "stateMutability": "nonpayable",
      "type": "constructor"
    },
    {
      "inputs": [
        {
          "internalType": "uint256",
          "name": "",
          "type": "uint256"
        }
      ],
      "name": "challenges",
      "outputs": [
        {
          "internalType": "uint256",
          "name": "communityId",
          "type": "uint256"
        },
        {
          "internalType": "uint256",
          "name": "challengeId",
          "type": "uint256"
        },
        {
          "internalType": "string",
          "name": "name",
          "type": "string"
        },
        {
          "internalType": "uint256",
          "name": "duration",
          "type": "uint256"
        },
        {
          "internalType": "string",
          "name": "durationUnit",
          "type": "string"
        }
      ],
      "stateMutability": "view",
      "type": "function"
    },
    {
      "inputs": [
        {
          "internalType": "uint256",
          "name": "",
          "type": "uint256"
        }
      ],
      "name": "habbitCommunities",
      "outputs": [
        {
          "internalType": "string",
          "name": "name",
          "type": "string"
        },
        {
          "internalType": "string",
          "name": "description",
          "type": "string"
        },
        {
          "internalType": "bool",
          "name": "isClosed",
          "type": "bool"
        }
      ],
      "stateMutability": "view",
      "type": "function"
    },
    {
      "inputs": [
        {
          "internalType": "uint256",
          "name": "",
          "type": "uint256"
        }
      ],
      "name": "metrics",
      "outputs": [
        {
          "internalType": "uint256",
          "name": "challengeId",
          "type": "uint256"
        },
        {
          "internalType": "string",
          "name": "metricName",
          "type": "string"
        },
        {
          "internalType": "uint256",
          "name": "metricDesc",
          "type": "uint256"
        },
        {
          "internalType": "string",
          "name": "durationUnit",
          "type": "string"
        }
      ],
      "stateMutability": "view",
      "type": "function"
    },
    {
      "inputs": [],
      "name": "owner",
      "outputs": [
        {
          "internalType": "address",
          "name": "",
          "type": "address"
        }
      ],
      "stateMutability": "view",
      "type": "function"
    }
  ],
  "bytecode": {
    "object": "0x608060405234801561001057600080fd5b50600080546001600160a01b03191633179055610663806100326000396000f3fe608060405234801561001057600080fd5b506004361061004c5760003560e01c80636d9aac62146100515780638da5cb5b1461007d5780638f1d3776146100a8578063f5fc1e86146100cc575b600080fd5b61006461005f3660046104dd565b6100ee565b604051610074949392919061053c565b60405180910390f35b600054610090906001600160a01b031681565b6040516001600160a01b039091168152602001610074565b6100bb6100b63660046104dd565b61023a565b604051610074959493929190610578565b6100df6100da3660046104dd565b610390565b604051610074939291906105bb565b600381815481106100fe57600080fd5b60009182526020909120600490910201805460018201805491935090610123906105f3565b80601f016020809104026020016040519081016040528092919081815260200182805461014f906105f3565b801561019c5780601f106101715761010080835404028352916020019161019c565b820191906000526020600020905b81548152906001019060200180831161017f57829003601f168201915b5050505050908060020154908060030180546101b7906105f3565b80601f01602080910402602001604051908101604052809291908181526020018280546101e3906105f3565b80156102305780601f1061020557610100808354040283529160200191610230565b820191906000526020600020905b81548152906001019060200180831161021357829003601f168201915b5050505050905084565b6002818154811061024a57600080fd5b9060005260206000209060050201600091509050806000015490806001015490806002018054610279906105f3565b80601f01602080910402602001604051908101604052809291908181526020018280546102a5906105f3565b80156102f25780601f106102c7576101008083540402835291602001916102f2565b820191906000526020600020905b8154815290600101906020018083116102d557829003601f168201915b50505050509080600301549080600401805461030d906105f3565b80601f0160208091040260200160405190810160405280929190818152602001828054610339906105f3565b80156103865780601f1061035b57610100808354040283529160200191610386565b820191906000526020600020905b81548152906001019060200180831161036957829003601f168201915b5050505050905085565b600181815481106103a057600080fd5b90600052602060002090600302016000915090508060000180546103c3906105f3565b80601f01602080910402602001604051908101604052809291908181526020018280546103ef906105f3565b801561043c5780601f106104115761010080835404028352916020019161043c565b820191906000526020600020905b81548152906001019060200180831161041f57829003601f168201915b505050505090806001018054610451906105f3565b80601f016020809104026020016040519081016040528092919081815260200182805461047d906105f3565b80156104ca5780601f1061049f576101008083540402835291602001916104ca565b820191906000526020600020905b8154815290600101906020018083116104ad57829003601f168201915b5050506002909301549192505060ff1683565b6000602082840312156104ef57600080fd5b5035919050565b6000815180845260005b8181101561051c57602081850181015186830182015201610500565b506000602082860101526020601f19601f83011685010191505092915050565b84815260806020820152600061055560808301866104f6565b846040840152828103606084015261056d81856104f6565b979650505050505050565b85815284602082015260a06040820152600061059760a08301866104f6565b84606084015282810360808401526105af81856104f6565b98975050505050505050565b6060815260006105ce60608301866104f6565b82810360208401526105e081866104f6565b9150508215156040830152949350505050565b600181811c9082168061060757607f821691505b60208210810361062757634e487b7160e01b600052602260045260246000fd5b5091905056fea26469706673582212203cab1dca15436324d97a9af301b69e5bc6cf50b46d0b8aeea889c739ff3f144264736f6c63430008110033",
    "linkReferences": {}
  },
  "methodIdentifiers": {
    "challenges(uint256)": "8f1d3776",
    "habbitCommunities(uint256)": "f5fc1e86",
    "metrics(uint256)": "6d9aac62",
    "owner()": "8da5cb5b"
  },
  "id": 14
}