{
  "abi": [
    {
      "inputs": [],
      "stateMutability": "nonpayable",
      "type": "constructor"
    },
    {
      "anonymous": false,
      "inputs": [
        {
          "indexed": false,
          "internalType": "address",
          "name": "user",
          "type": "address"
        },
        {
          "indexed": false,
          "internalType": "uint256",
          "name": "enrollmentId",
          "type": "uint256"
        },
        {
          "indexed": false,
          "internalType": "uint256",
          "name": "metricsId",
          "type": "uint256"
        },
        {
          "indexed": false,
          "internalType": "string",
          "name": "description",
          "type": "string"
        },
        {
          "indexed": false,
          "internalType": "string",
          "name": "uploadURL",
          "type": "string"
        },
        {
          "indexed": false,
          "internalType": "uint256",
          "name": "activityDate",
          "type": "uint256"
        }
      ],
      "name": "ActivityAdded",
      "type": "event"
    },
    {
      "anonymous": false,
      "inputs": [
        {
          "indexed": false,
          "internalType": "string",
          "name": "name",
          "type": "string"
        },
        {
          "indexed": false,
          "internalType": "string",
          "name": "description",
          "type": "string"
        },
        {
          "indexed": false,
          "internalType": "uint256",
          "name": "keyIndex",
          "type": "uint256"
        },
        {
          "indexed": false,
          "internalType": "string",
          "name": "communityname",
          "type": "string"
        },
        {
          "indexed": false,
          "internalType": "uint256",
          "name": "communityIndex",
          "type": "uint256"
        }
      ],
      "name": "ChallengeAdded",
      "type": "event"
    },
    {
      "anonymous": false,
      "inputs": [
        {
          "indexed": false,
          "internalType": "string",
          "name": "name",
          "type": "string"
        },
        {
          "indexed": false,
          "internalType": "uint256",
          "name": "indexKey",
          "type": "uint256"
        }
      ],
      "name": "CohortAdded",
      "type": "event"
    },
    {
      "anonymous": false,
      "inputs": [
        {
          "indexed": false,
          "internalType": "string",
          "name": "name",
          "type": "string"
        },
        {
          "indexed": false,
          "internalType": "string",
          "name": "description",
          "type": "string"
        },
        {
          "indexed": false,
          "internalType": "uint256",
          "name": "keyindex",
          "type": "uint256"
        }
      ],
      "name": "CommunityAdded",
      "type": "event"
    },
    {
      "anonymous": false,
      "inputs": [
        {
          "indexed": false,
          "internalType": "address",
          "name": "user",
          "type": "address"
        },
        {
          "indexed": false,
          "internalType": "uint256",
          "name": "_challengeId",
          "type": "uint256"
        },
        {
          "indexed": false,
          "internalType": "uint256",
          "name": "_cohortId",
          "type": "uint256"
        },
        {
          "indexed": false,
          "internalType": "uint256",
          "name": "_enrollmentKey",
          "type": "uint256"
        }
      ],
      "name": "EnrollmentAdded",
      "type": "event"
    },
    {
      "anonymous": false,
      "inputs": [
        {
          "indexed": false,
          "internalType": "string",
          "name": "name",
          "type": "string"
        },
        {
          "indexed": false,
          "internalType": "string",
          "name": "description",
          "type": "string"
        },
        {
          "indexed": false,
          "internalType": "uint256",
          "name": "metricPoints",
          "type": "uint256"
        },
        {
          "indexed": false,
          "internalType": "uint256",
          "name": "challengeId",
          "type": "uint256"
        },
        {
          "indexed": false,
          "internalType": "uint256",
          "name": "indexKey",
          "type": "uint256"
        }
      ],
      "name": "MetricAdded",
      "type": "event"
    },
    {
      "anonymous": false,
      "inputs": [
        {
          "indexed": false,
          "internalType": "string",
          "name": "name",
          "type": "string"
        },
        {
          "indexed": false,
          "internalType": "uint256",
          "name": "_priceValue",
          "type": "uint256"
        }
      ],
      "name": "NFTRuleAdded",
      "type": "event"
    },
    {
      "inputs": [
        {
          "internalType": "string",
          "name": "",
          "type": "string"
        },
        {
          "internalType": "uint256",
          "name": "",
          "type": "uint256"
        }
      ],
      "name": "ChallengeNameToMetric",
      "outputs": [
        {
          "internalType": "uint256",
          "name": "",
          "type": "uint256"
        }
      ],
      "stateMutability": "view",
      "type": "function"
    },
    {
      "inputs": [
        {
          "internalType": "string",
          "name": "",
          "type": "string"
        },
        {
          "internalType": "uint256",
          "name": "",
          "type": "uint256"
        }
      ],
      "name": "CommunityNameToChallenge",
      "outputs": [
        {
          "internalType": "uint256",
          "name": "",
          "type": "uint256"
        }
      ],
      "stateMutability": "view",
      "type": "function"
    },
    {
      "inputs": [],
      "name": "accumulatePointsByUser",
      "outputs": [],
      "stateMutability": "nonpayable",
      "type": "function"
    },
    {
      "inputs": [
        {
          "internalType": "uint256",
          "name": "",
          "type": "uint256"
        }
      ],
      "name": "activities",
      "outputs": [
        {
          "internalType": "address",
          "name": "user",
          "type": "address"
        },
        {
          "internalType": "uint256",
          "name": "enrollmentId",
          "type": "uint256"
        },
        {
          "internalType": "uint256",
          "name": "metricsId",
          "type": "uint256"
        },
        {
          "internalType": "string",
          "name": "description",
          "type": "string"
        },
        {
          "internalType": "string",
          "name": "uploadURL",
          "type": "string"
        },
        {
          "internalType": "uint256",
          "name": "activityDate",
          "type": "uint256"
        },
        {
          "internalType": "bool",
          "name": "voteforValidity",
          "type": "bool"
        }
      ],
      "stateMutability": "view",
      "type": "function"
    },
    {
      "inputs": [],
      "name": "activityKey",
      "outputs": [
        {
          "internalType": "uint256",
          "name": "",
          "type": "uint256"
        }
      ],
      "stateMutability": "view",
      "type": "function"
    },
    {
      "inputs": [],
      "name": "challengeKey",
      "outputs": [
        {
          "internalType": "uint256",
          "name": "",
          "type": "uint256"
        }
      ],
      "stateMutability": "view",
      "type": "function"
    },
    {
      "inputs": [
        {
          "internalType": "uint256",
          "name": "",
          "type": "uint256"
        }
      ],
      "name": "challenges",
      "outputs": [
        {
          "internalType": "string",
          "name": "name",
          "type": "string"
        },
        {
          "internalType": "string",
          "name": "description",
          "type": "string"
        },
        {
          "internalType": "uint256",
          "name": "maxEnroll",
          "type": "uint256"
        },
        {
          "internalType": "uint256",
          "name": "currentEnroll",
          "type": "uint256"
        },
        {
          "internalType": "bool",
          "name": "isClosed",
          "type": "bool"
        },
        {
          "internalType": "uint256",
          "name": "communityId",
          "type": "uint256"
        },
        {
          "internalType": "uint256",
          "name": "indexKey",
          "type": "uint256"
        }
      ],
      "stateMutability": "view",
      "type": "function"
    },
    {
      "inputs": [],
      "name": "cohortKey",
      "outputs": [
        {
          "internalType": "uint256",
          "name": "",
          "type": "uint256"
        }
      ],
      "stateMutability": "view",
      "type": "function"
    },
    {
      "inputs": [
        {
          "internalType": "uint256",
          "name": "",
          "type": "uint256"
        }
      ],
      "name": "cohorts",
      "outputs": [
        {
          "internalType": "string",
          "name": "name",
          "type": "string"
        },
        {
          "internalType": "uint256",
          "name": "challengeId",
          "type": "uint256"
        },
        {
          "internalType": "uint256",
          "name": "indexKey",
          "type": "uint256"
        }
      ],
      "stateMutability": "view",
      "type": "function"
    },
    {
      "inputs": [
        {
          "internalType": "uint256",
          "name": "",
          "type": "uint256"
        }
      ],
      "name": "communities",
      "outputs": [
        {
          "internalType": "string",
          "name": "name",
          "type": "string"
        },
        {
          "internalType": "string",
          "name": "description",
          "type": "string"
        },
        {
          "internalType": "bool",
          "name": "isClosed",
          "type": "bool"
        },
        {
          "internalType": "uint256",
          "name": "numberEnrolled",
          "type": "uint256"
        },
        {
          "internalType": "uint256",
          "name": "indexKey",
          "type": "uint256"
        }
      ],
      "stateMutability": "view",
      "type": "function"
    },
    {
      "inputs": [],
      "name": "communityKey",
      "outputs": [
        {
          "internalType": "uint256",
          "name": "",
          "type": "uint256"
        }
      ],
      "stateMutability": "view",
      "type": "function"
    },
    {
      "inputs": [
        {
          "internalType": "uint256",
          "name": "_challengeId",
          "type": "uint256"
        },
        {
          "internalType": "uint256",
          "name": "_cohortId",
          "type": "uint256"
        }
      ],
      "name": "enrollIntoChallenge",
      "outputs": [
        {
          "internalType": "uint256",
          "name": "",
          "type": "uint256"
        }
      ],
      "stateMutability": "nonpayable",
      "type": "function"
    },
    {
      "inputs": [],
      "name": "enrollmentKey",
      "outputs": [
        {
          "internalType": "uint256",
          "name": "",
          "type": "uint256"
        }
      ],
      "stateMutability": "view",
      "type": "function"
    },
    {
      "inputs": [
        {
          "internalType": "uint256",
          "name": "",
          "type": "uint256"
        }
      ],
      "name": "enrollments",
      "outputs": [
        {
          "internalType": "address",
          "name": "user",
          "type": "address"
        },
        {
          "internalType": "uint256",
          "name": "challengeId",
          "type": "uint256"
        },
        {
          "internalType": "uint256",
          "name": "cohortId",
          "type": "uint256"
        },
        {
          "internalType": "bool",
          "name": "isActive",
          "type": "bool"
        },
        {
          "internalType": "bool",
          "name": "isExist",
          "type": "bool"
        },
        {
          "internalType": "uint256",
          "name": "indexKey",
          "type": "uint256"
        }
      ],
      "stateMutability": "view",
      "type": "function"
    },
    {
      "inputs": [
        {
          "internalType": "uint256",
          "name": "",
          "type": "uint256"
        }
      ],
      "name": "indexKeyToActivity",
      "outputs": [
        {
          "internalType": "address",
          "name": "user",
          "type": "address"
        },
        {
          "internalType": "uint256",
          "name": "enrollmentId",
          "type": "uint256"
        },
        {
          "internalType": "uint256",
          "name": "metricsId",
          "type": "uint256"
        },
        {
          "internalType": "string",
          "name": "description",
          "type": "string"
        },
        {
          "internalType": "string",
          "name": "uploadURL",
          "type": "string"
        },
        {
          "internalType": "uint256",
          "name": "activityDate",
          "type": "uint256"
        },
        {
          "internalType": "bool",
          "name": "voteforValidity",
          "type": "bool"
        }
      ],
      "stateMutability": "view",
      "type": "function"
    },
    {
      "inputs": [
        {
          "internalType": "uint256",
          "name": "",
          "type": "uint256"
        }
      ],
      "name": "indexKeyToChallenge",
      "outputs": [
        {
          "internalType": "string",
          "name": "name",
          "type": "string"
        },
        {
          "internalType": "string",
          "name": "description",
          "type": "string"
        },
        {
          "internalType": "uint256",
          "name": "maxEnroll",
          "type": "uint256"
        },
        {
          "internalType": "uint256",
          "name": "currentEnroll",
          "type": "uint256"
        },
        {
          "internalType": "bool",
          "name": "isClosed",
          "type": "bool"
        },
        {
          "internalType": "uint256",
          "name": "communityId",
          "type": "uint256"
        },
        {
          "internalType": "uint256",
          "name": "indexKey",
          "type": "uint256"
        }
      ],
      "stateMutability": "view",
      "type": "function"
    },
    {
      "inputs": [
        {
          "internalType": "uint256",
          "name": "",
          "type": "uint256"
        }
      ],
      "name": "indexKeyToCohort",
      "outputs": [
        {
          "internalType": "string",
          "name": "name",
          "type": "string"
        },
        {
          "internalType": "uint256",
          "name": "challengeId",
          "type": "uint256"
        },
        {
          "internalType": "uint256",
          "name": "indexKey",
          "type": "uint256"
        }
      ],
      "stateMutability": "view",
      "type": "function"
    },
    {
      "inputs": [
        {
          "internalType": "uint256",
          "name": "",
          "type": "uint256"
        }
      ],
      "name": "indexKeyToCommunity",
      "outputs": [
        {
          "internalType": "string",
          "name": "name",
          "type": "string"
        },
        {
          "internalType": "string",
          "name": "description",
          "type": "string"
        },
        {
          "internalType": "bool",
          "name": "isClosed",
          "type": "bool"
        },
        {
          "internalType": "uint256",
          "name": "numberEnrolled",
          "type": "uint256"
        },
        {
          "internalType": "uint256",
          "name": "indexKey",
          "type": "uint256"
        }
      ],
      "stateMutability": "view",
      "type": "function"
    },
    {
      "inputs": [
        {
          "internalType": "uint256",
          "name": "",
          "type": "uint256"
        }
      ],
      "name": "indexKeyToEnrollment",
      "outputs": [
        {
          "internalType": "address",
          "name": "user",
          "type": "address"
        },
        {
          "internalType": "uint256",
          "name": "challengeId",
          "type": "uint256"
        },
        {
          "internalType": "uint256",
          "name": "cohortId",
          "type": "uint256"
        },
        {
          "internalType": "bool",
          "name": "isActive",
          "type": "bool"
        },
        {
          "internalType": "bool",
          "name": "isExist",
          "type": "bool"
        },
        {
          "internalType": "uint256",
          "name": "indexKey",
          "type": "uint256"
        }
      ],
      "stateMutability": "view",
      "type": "function"
    },
    {
      "inputs": [
        {
          "internalType": "uint256",
          "name": "",
          "type": "uint256"
        }
      ],
      "name": "indexKeyToMetric",
      "outputs": [
        {
          "internalType": "string",
          "name": "name",
          "type": "string"
        },
        {
          "internalType": "string",
          "name": "description",
          "type": "string"
        },
        {
          "internalType": "uint256",
          "name": "metricPoints",
          "type": "uint256"
        },
        {
          "internalType": "uint256",
          "name": "challengeId",
          "type": "uint256"
        },
        {
          "internalType": "uint256",
          "name": "indexKey",
          "type": "uint256"
        }
      ],
      "stateMutability": "view",
      "type": "function"
    },
    {
      "inputs": [
        {
          "internalType": "uint256",
          "name": "_enrollmentId",
          "type": "uint256"
        },
        {
          "internalType": "uint256",
          "name": "_metricsId",
          "type": "uint256"
        },
        {
          "internalType": "string",
          "name": "_description",
          "type": "string"
        },
        {
          "internalType": "string",
          "name": "_uploadURL",
          "type": "string"
        },
        {
          "internalType": "uint256",
          "name": "_activityDate",
          "type": "uint256"
        }
      ],
      "name": "insertActivity",
      "outputs": [
        {
          "internalType": "uint256",
          "name": "",
          "type": "uint256"
        }
      ],
      "stateMutability": "nonpayable",
      "type": "function"
    },
    {
      "inputs": [
        {
          "internalType": "string",
          "name": "_communityName",
          "type": "string"
        },
        {
          "internalType": "uint256",
          "name": "_communityId",
          "type": "uint256"
        },
        {
          "internalType": "string",
          "name": "_name",
          "type": "string"
        },
        {
          "internalType": "string",
          "name": "_description",
          "type": "string"
        },
        {
          "internalType": "uint256",
          "name": "_maxEnroll",
          "type": "uint256"
        },
        {
          "internalType": "bool",
          "name": "_isclosed",
          "type": "bool"
        }
      ],
      "name": "insertChallenge",
      "outputs": [
        {
          "internalType": "uint256",
          "name": "",
          "type": "uint256"
        }
      ],
      "stateMutability": "nonpayable",
      "type": "function"
    },
    {
      "inputs": [
        {
          "internalType": "string",
          "name": "_name",
          "type": "string"
        },
        {
          "internalType": "uint256",
          "name": "_challengeId",
          "type": "uint256"
        }
      ],
      "name": "insertCohort",
      "outputs": [
        {
          "internalType": "uint256",
          "name": "",
          "type": "uint256"
        }
      ],
      "stateMutability": "nonpayable",
      "type": "function"
    },
    {
      "inputs": [
        {
          "internalType": "string",
          "name": "_name",
          "type": "string"
        },
        {
          "internalType": "string",
          "name": "_description",
          "type": "string"
        },
        {
          "internalType": "bool",
          "name": "_isclosed",
          "type": "bool"
        }
      ],
      "name": "insertCommunity",
      "outputs": [
        {
          "internalType": "uint256",
          "name": "",
          "type": "uint256"
        }
      ],
      "stateMutability": "nonpayable",
      "type": "function"
    },
    {
      "inputs": [
        {
          "internalType": "string",
          "name": "_name",
          "type": "string"
        },
        {
          "internalType": "string",
          "name": "_description",
          "type": "string"
        },
        {
          "internalType": "uint256",
          "name": "_metricPoints",
          "type": "uint256"
        },
        {
          "internalType": "uint256",
          "name": "_challengeId",
          "type": "uint256"
        }
      ],
      "name": "insertMetric",
      "outputs": [
        {
          "internalType": "uint256",
          "name": "",
          "type": "uint256"
        }
      ],
      "stateMutability": "nonpayable",
      "type": "function"
    },
    {
      "inputs": [
        {
          "internalType": "string",
          "name": "_name",
          "type": "string"
        },
        {
          "internalType": "uint256",
          "name": "_priceValue",
          "type": "uint256"
        }
      ],
      "name": "insertNFTRules",
      "outputs": [
        {
          "internalType": "string",
          "name": "",
          "type": "string"
        }
      ],
      "stateMutability": "nonpayable",
      "type": "function"
    },
    {
      "inputs": [],
      "name": "metricKey",
      "outputs": [
        {
          "internalType": "uint256",
          "name": "",
          "type": "uint256"
        }
      ],
      "stateMutability": "view",
      "type": "function"
    },
    {
      "inputs": [
        {
          "internalType": "uint256",
          "name": "",
          "type": "uint256"
        }
      ],
      "name": "metrics",
      "outputs": [
        {
          "internalType": "string",
          "name": "name",
          "type": "string"
        },
        {
          "internalType": "string",
          "name": "description",
          "type": "string"
        },
        {
          "internalType": "uint256",
          "name": "metricPoints",
          "type": "uint256"
        },
        {
          "internalType": "uint256",
          "name": "challengeId",
          "type": "uint256"
        },
        {
          "internalType": "uint256",
          "name": "indexKey",
          "type": "uint256"
        }
      ],
      "stateMutability": "view",
      "type": "function"
    },
    {
      "inputs": [
        {
          "internalType": "string",
          "name": "",
          "type": "string"
        }
      ],
      "name": "nameToChallenge",
      "outputs": [
        {
          "internalType": "string",
          "name": "name",
          "type": "string"
        },
        {
          "internalType": "string",
          "name": "description",
          "type": "string"
        },
        {
          "internalType": "uint256",
          "name": "maxEnroll",
          "type": "uint256"
        },
        {
          "internalType": "uint256",
          "name": "currentEnroll",
          "type": "uint256"
        },
        {
          "internalType": "bool",
          "name": "isClosed",
          "type": "bool"
        },
        {
          "internalType": "uint256",
          "name": "communityId",
          "type": "uint256"
        },
        {
          "internalType": "uint256",
          "name": "indexKey",
          "type": "uint256"
        }
      ],
      "stateMutability": "view",
      "type": "function"
    },
    {
      "inputs": [
        {
          "internalType": "string",
          "name": "",
          "type": "string"
        }
      ],
      "name": "nameToCohort",
      "outputs": [
        {
          "internalType": "string",
          "name": "name",
          "type": "string"
        },
        {
          "internalType": "uint256",
          "name": "challengeId",
          "type": "uint256"
        },
        {
          "internalType": "uint256",
          "name": "indexKey",
          "type": "uint256"
        }
      ],
      "stateMutability": "view",
      "type": "function"
    },
    {
      "inputs": [
        {
          "internalType": "string",
          "name": "",
          "type": "string"
        }
      ],
      "name": "nameToCommunity",
      "outputs": [
        {
          "internalType": "string",
          "name": "name",
          "type": "string"
        },
        {
          "internalType": "string",
          "name": "description",
          "type": "string"
        },
        {
          "internalType": "bool",
          "name": "isClosed",
          "type": "bool"
        },
        {
          "internalType": "uint256",
          "name": "numberEnrolled",
          "type": "uint256"
        },
        {
          "internalType": "uint256",
          "name": "indexKey",
          "type": "uint256"
        }
      ],
      "stateMutability": "view",
      "type": "function"
    },
    {
      "inputs": [
        {
          "internalType": "string",
          "name": "",
          "type": "string"
        }
      ],
      "name": "nameToMetric",
      "outputs": [
        {
          "internalType": "string",
          "name": "name",
          "type": "string"
        },
        {
          "internalType": "string",
          "name": "description",
          "type": "string"
        },
        {
          "internalType": "uint256",
          "name": "metricPoints",
          "type": "uint256"
        },
        {
          "internalType": "uint256",
          "name": "challengeId",
          "type": "uint256"
        },
        {
          "internalType": "uint256",
          "name": "indexKey",
          "type": "uint256"
        }
      ],
      "stateMutability": "view",
      "type": "function"
    },
    {
      "inputs": [
        {
          "internalType": "string",
          "name": "",
          "type": "string"
        }
      ],
      "name": "nameToNFTRule",
      "outputs": [
        {
          "internalType": "string",
          "name": "nftType",
          "type": "string"
        },
        {
          "internalType": "uint256",
          "name": "nftPrice",
          "type": "uint256"
        }
      ],
      "stateMutability": "view",
      "type": "function"
    },
    {
      "inputs": [
        {
          "internalType": "uint256",
          "name": "",
          "type": "uint256"
        }
      ],
      "name": "nftrules",
      "outputs": [
        {
          "internalType": "string",
          "name": "nftType",
          "type": "string"
        },
        {
          "internalType": "uint256",
          "name": "nftPrice",
          "type": "uint256"
        }
      ],
      "stateMutability": "view",
      "type": "function"
    },
    {
      "inputs": [],
      "name": "owner",
      "outputs": [
        {
          "internalType": "address",
          "name": "",
          "type": "address"
        }
      ],
      "stateMutability": "view",
      "type": "function"
    },
    {
      "inputs": [
        {
          "internalType": "address",
          "name": "",
          "type": "address"
        },
        {
          "internalType": "uint256",
          "name": "",
          "type": "uint256"
        }
      ],
      "name": "ownerToEnrollments",
      "outputs": [
        {
          "internalType": "uint256",
          "name": "",
          "type": "uint256"
        }
      ],
      "stateMutability": "view",
      "type": "function"
    },
    {
      "inputs": [],
      "name": "validateActivity",
      "outputs": [],
      "stateMutability": "nonpayable",
      "type": "function"
    },
    {
      "inputs": [
        {
          "internalType": "uint256",
          "name": "_communityId",
          "type": "uint256"
        },
        {
          "internalType": "string",
          "name": "_communityname",
          "type": "string"
        }
      ],
      "name": "viewChallengebyCommunity",
      "outputs": [
        {
          "internalType": "uint256[]",
          "name": "",
          "type": "uint256[]"
        }
      ],
      "stateMutability": "view",
      "type": "function"
    },
    {
      "inputs": [],
      "name": "viewEnrollmentsbyUser",
      "outputs": [
        {
          "internalType": "uint256[]",
          "name": "",
          "type": "uint256[]"
        }
      ],
      "stateMutability": "view",
      "type": "function"
    },
    {
      "inputs": [
        {
          "internalType": "uint256",
          "name": "_challengeId",
          "type": "uint256"
        },
        {
          "internalType": "string",
          "name": "_challengename",
          "type": "string"
        }
      ],
      "name": "viewMetricbyChallenge",
      "outputs": [
        {
          "internalType": "uint256[]",
          "name": "",
          "type": "uint256[]"
        }
      ],
      "stateMutability": "view",
      "type": "function"
    },
    {
      "inputs": [],
      "name": "viewNFTRules",
      "outputs": [
        {
          "internalType": "string",
          "name": "rule1",
          "type": "string"
        },
        {
          "internalType": "string",
          "name": "rule2",
          "type": "string"
        },
        {
          "internalType": "string",
          "name": "rule3",
          "type": "string"
        }
      ],
      "stateMutability": "view",
      "type": "function"
    }
  ],
  "bytecode": {
    "object": "0x6080604052600060045560006009556000600e55600060125560006018556000601b553480156200002f57600080fd5b506200008060405180604001604052806011815260200170506572736f6e616c2057656c6c6e65737360781b81525060405180606001604052806034815260200162003bf060349139600062000396565b50620000d26040518060400160405280601281526020017146696e616e6369616c2057656c6c6e65737360701b81525060405180606001604052806031815260200162003d6960319139600062000396565b50620001216040518060400160405280600f81526020016e4d656e74616c2057656c6c6e65737360881b8152506040518060600160405280602c815260200162003b8b602c9139600062000396565b506200016e6040518060400160405280600d81526020016c52656c6174696f6e736869707360981b81525060405180608001604052806046815260200162003c6160469139600062000396565b50620001f960405180604001604052806011815260200170506572736f6e616c2057656c6c6e65737360781b81525060006040518060400160405280601681526020017f4265636f6d652061206561726c6965722072697365720000000000000000000081525060405180606001604052806039815260200162003bb76039913960326000620005d5565b506200028460405180604001604052806011815260200170506572736f6e616c2057656c6c6e65737360781b81525060006040518060400160405280601381526020017f47657420746f207a6f6e65206f6620666c6f77000000000000000000000000008152506040518060800160405280605a815260200162003ca7605a913960326000620005d5565b50620002ff60405180604001604052806011815260200170506572736f6e616c2057656c6c6e65737360781b81525060006040518060400160405280600d81526020016c426c6f6720657665727964617960981b8152506040518060a001604052806068815260200162003d016068913960326000620005d5565b506200037d6040518060400160405280601281526020017146696e616e6369616c2057656c6c6e65737360701b81525060016040518060400160405280600f81526020016e496e7665737420657665727964617960881b8152506040518060600160405280603d815260200162003c24603d913960326000620005d5565b50600080546001600160a01b0319163317905562000b62565b6000620003cd6040518060a00160405280606081526020016060815260200160001515815260200160008152602001600081525090565b8481526020810184905282151560408083019190915260006060830152600454608083015251819060019062000405908890620008c5565b9081526040519081900360200190208151819062000424908262000988565b50602082015160018201906200043b908262000988565b506040828101516002838101805460ff19169215159290921790915560608401516003840155608090930151600492830155905460009081526020929092529020815182919081906200048f908262000988565b5060208201516001820190620004a6908262000988565b50604082015160028201805491151560ff1990921691909117905560608201516003808301919091556080909201516004909101558054600181018255600091909152815182916005027fc2575a0e9e593c00f959f8c92f12db2869c3395a3b0502d05e2516446f71f85b0190819062000521908262000988565b506020820151600182019062000538908262000988565b5060408281015160028301805460ff1916911515919091179055606083015160038301556080909201516004918201555490517ffb591a62cc32f64694fd051b543d434a5a05f50fee72e157400db204d2ace719916200059c918891889162000a82565b60405180910390a160048054906000620005b68362000ad2565b91905055506001600454620005cc919062000aee565b95945050505050565b60006200061a6040518060e001604052806060815260200160608152602001600081526020016000815260200160001515815260200160008152602001600081525090565b858152602081018590528215156080820152604080820185905260a0820188905260095460c08301525160059062000654908a90620008c5565b908152604051908190036020908101822060095481546001810183556000928352929091209091015581906006906200068f908990620008c5565b90815260405190819003602001902081518190620006ae908262000988565b5060208201516001820190620006c5908262000988565b50604082810151600283015560608301516003830155608083015160048301805460ff191691151591909117905560a0830151600583015560c0909201516006909101556009546000908152600760205220815182919081906200072a908262000988565b506020820151600182019062000741908262000988565b506040820151600282015560608201516003820155608082015160048201805491151560ff1990921691909117905560a0820151600582015560c09091015160069091015560088054600181018255600091909152815182916007027ff3f7a9fe364faab93b216da50a3214154f22a0a2b415b23a84c8169e8b636ee301908190620007ce908262000988565b5060208201516001820190620007e5908262000988565b50604082810151600283015560608301516003830155608083015160048301805460ff191691151591909117905560a0830151600583015560c09092015160069091015560095490517f57da1c1d09799d711292a20228ab743bdc787c13695e84a81043787b1f5e8e66916200086391899189918d908d9062000b0a565b60405180910390a1600980549060006200087d8362000ad2565b9190505550600160095462000893919062000aee565b98975050505050505050565b60005b83811015620008bc578181015183820152602001620008a2565b50506000910152565b60008251620008d98184602087016200089f565b9190910192915050565b634e487b7160e01b600052604160045260246000fd5b600181811c908216806200090e57607f821691505b6020821081036200092f57634e487b7160e01b600052602260045260246000fd5b50919050565b601f8211156200098357600081815260208120601f850160051c810160208610156200095e5750805b601f850160051c820191505b818110156200097f578281556001016200096a565b5050505b505050565b81516001600160401b03811115620009a457620009a4620008e3565b620009bc81620009b58454620008f9565b8462000935565b602080601f831160018114620009f45760008415620009db5750858301515b600019600386901b1c1916600185901b1785556200097f565b600085815260208120601f198616915b8281101562000a255788860151825594840194600190910190840162000a04565b508582101562000a445787850151600019600388901b60f8161c191681555b5050505050600190811b01905550565b6000815180845262000a6e8160208601602086016200089f565b601f01601f19169290920160200192915050565b60608152600062000a97606083018662000a54565b828103602084015262000aab818662000a54565b915050826040830152949350505050565b634e487b7160e01b600052601160045260246000fd5b60006001820162000ae75762000ae762000abc565b5060010190565b8181038181111562000b045762000b0462000abc565b92915050565b60a08152600062000b1f60a083018862000a54565b828103602084015262000b33818862000a54565b9050856040840152828103606084015262000b4f818662000a54565b9150508260808301529695505050505050565b6130198062000b726000396000f3fe608060405234801561001057600080fd5b50600436106102535760003560e01c80637e29f89111610146578063af0ebed2116100c3578063cd6e911d11610087578063cd6e911d146105c8578063e31a9e4f146105d1578063e590b56a146105e4578063ef545f45146105f7578063f7505b8b1461060a578063ff98d45e1461061357600080fd5b8063af0ebed214610573578063b31ef53414610586578063b350805514610599578063b5e4a227146105ac578063ba7d0f2f146105bf57600080fd5b806397d3a4971161010a57806397d3a49714610524578063987872b4146102875780639a6b20871461052d578063a009c31f14610540578063a8a54acd1461056057600080fd5b80637e29f891146104b75780638062f9b4146104ca57806380dea36b146104d35780638da5cb5b146104e65780638f1d37761461051157600080fd5b806346b80a3b116101d4578063629f6fa311610198578063629f6fa3146104475780636d9aac621461045a5780636f8c20a81461047e57806374ed78d014610491578063779c629f146104a457600080fd5b806346b80a3b146103d15780634b5a0434146103e65780635505afc6146103ef5780635a2cbabc146104025780635f17141d1461042657600080fd5b80632f78f05b1161021b5780632f78f05b146102e75780633221fc391461030957806335f5c4531461031c57806336da73d3146103ab5780633d755721146103be57600080fd5b80630d1657e8146102585780630d4cff3714610287578063191be53e146102895780631b9705c8146102af57806327d554c4146102c6575b600080fd5b61026b610266366004612678565b610626565b60405161027e97969594939291906126e1565b60405180910390f35b005b61029c610297366004612678565b610796565b60405161027e979695949392919061273c565b6102b76108e4565b60405161027e9392919061278c565b6102d96102d4366004612868565b610b07565b60405190815260200161027e565b6102fa6102f53660046128e7565b610d4e565b60405161027e9392919061291c565b6102d9610317366004612941565b610e03565b61037061032a366004612678565b601760205260009081526040902080546001820154600283015460038401546004909401546001600160a01b03909316939192909160ff80821692610100909204169086565b604080516001600160a01b039097168752602087019590955293850192909252151560608401521515608083015260a082015260c00161027e565b6102d96103b93660046129b5565b611042565b6102fa6103cc366004612678565b6115b4565b6103d96115cf565b60405161027e91906129d7565b6102d9600e5481565b6102d96103fd366004612a1b565b611630565b610415610410366004612678565b611661565b60405161027e959493929190612a53565b610439610434366004612678565b6117a5565b60405161027e929190612a96565b6103d9610455366004612ab8565b611861565b61046d610468366004612678565b611a31565b60405161027e959493929190612aff565b61046d61048c366004612678565b611b87565b6102fa61049f366004612678565b611ba2565b61026b6104b2366004612678565b611bd5565b6102d96104c5366004612b42565b611c0f565b6102d960095481565b61046d6104e13660046128e7565b611c3a565b6000546104f9906001600160a01b031681565b6040516001600160a01b03909116815260200161027e565b61029c61051f366004612678565b611c60565b6102d960185481565b61037061053b366004612678565b611c93565b61055361054e366004612b42565b611ceb565b60405161027e9190612b87565b6102d961056e366004612bb6565b611de2565b6102d9610581366004612b42565b612095565b6104396105943660046128e7565b612214565b6102d96105a7366004612b42565b61223a565b61029c6105ba3660046128e7565b612265565b6102d9601b5481565b6102d960125481565b6104156105df3660046128e7565b61228b565b6104156105f2366004612678565b6122b1565b6102d9610605366004612c61565b6122e4565b6102d960045481565b6103d9610621366004612ab8565b61250e565b601a818154811061063657600080fd5b600091825260209091206007909102018054600182015460028301546003840180546001600160a01b0390941695509193909290919061067590612cd5565b80601f01602080910402602001604051908101604052809291908181526020018280546106a190612cd5565b80156106ee5780601f106106c3576101008083540402835291602001916106ee565b820191906000526020600020905b8154815290600101906020018083116106d157829003601f168201915b50505050509080600401805461070390612cd5565b80601f016020809104026020016040519081016040528092919081815260200182805461072f90612cd5565b801561077c5780601f106107515761010080835404028352916020019161077c565b820191906000526020600020905b81548152906001019060200180831161075f57829003601f168201915b50505050600583015460069093015491929160ff16905087565b6007602052600090815260409020805481906107b190612cd5565b80601f01602080910402602001604051908101604052809291908181526020018280546107dd90612cd5565b801561082a5780601f106107ff5761010080835404028352916020019161082a565b820191906000526020600020905b81548152906001019060200180831161080d57829003601f168201915b50505050509080600101805461083f90612cd5565b80601f016020809104026020016040519081016040528092919081815260200182805461086b90612cd5565b80156108b85780601f1061088d576101008083540402835291602001916108b8565b820191906000526020600020905b81548152906001019060200180831161089b57829003601f168201915b50505060028401546003850154600486015460058701546006909701549596929591945060ff16925087565b606080606060146000815481106108fd576108fd612d0f565b9060005260206000209060020201600001601460018154811061092257610922612d0f565b9060005260206000209060020201600001601460028154811061094757610947612d0f565b906000526020600020906002020160000182805461096490612cd5565b80601f016020809104026020016040519081016040528092919081815260200182805461099090612cd5565b80156109dd5780601f106109b2576101008083540402835291602001916109dd565b820191906000526020600020905b8154815290600101906020018083116109c057829003601f168201915b505050505092508180546109f090612cd5565b80601f0160208091040260200160405190810160405280929190818152602001828054610a1c90612cd5565b8015610a695780601f10610a3e57610100808354040283529160200191610a69565b820191906000526020600020905b815481529060010190602001808311610a4c57829003601f168201915b50505050509150808054610a7c90612cd5565b80601f0160208091040260200160405190810160405280929190818152602001828054610aa890612cd5565b8015610af55780601f10610aca57610100808354040283529160200191610af5565b820191906000526020600020905b815481529060010190602001808311610ad857829003601f168201915b50505050509050925092509250909192565b6040805160e081018252600060c082018190523382526020808301898152838501898152606085018981526080860189905260a08601889052601b5485526019909352948320845181546001600160a01b0319166001600160a01b03909116178155905160018201559351600285015551909282916003820190610b8b9082612d74565b5060808201516004820190610ba09082612d74565b5060a0820151600582015560c0909101516006909101805460ff1916911515919091179055601a805460018101825560009190915281517f057c384a7d1c54f3a1b2e5e67b2617b8224fdfd1ea7234eea573a6ff665ff63e600790920291820180546001600160a01b0319166001600160a01b0390921691909117815560208301517f057c384a7d1c54f3a1b2e5e67b2617b8224fdfd1ea7234eea573a6ff665ff63f83015560408301517f057c384a7d1c54f3a1b2e5e67b2617b8224fdfd1ea7234eea573a6ff665ff640830155606083015183927f057c384a7d1c54f3a1b2e5e67b2617b8224fdfd1ea7234eea573a6ff665ff6410190610ca39082612d74565b5060808201516004820190610cb89082612d74565b5060a0820151600582015560c0909101516006909101805460ff19169115159190911790556040517fbc21f23f9e1a2117be6607b9b778d16a66cceb5df1cacb4e3f3923a2aeea9c6990610d179033908a908a908a908a908a90612e34565b60405180910390a1601b8054906000610d2f83612e9d565b91905055506001601b54610d439190612eb6565b979650505050505050565b8051602081830181018051600f82529282019190930120915280548190610d7490612cd5565b80601f0160208091040260200160405190810160405280929190818152602001828054610da090612cd5565b8015610ded5780601f10610dc257610100808354040283529160200191610ded565b820191906000526020600020905b815481529060010190602001808311610dd057829003601f168201915b5050505050908060010154908060020154905083565b6000610e376040518060a0016040528060608152602001606081526020016000815260200160008152602001600081525090565b8581526020808201869052604080830186905260608301859052600e54608084015260008581526007909252908190209051600a91610e7591612ec9565b9081526040519081900360209081018220600e548154600181018355600092835292909120909101558190600b90610eae908990612f3f565b90815260405190819003602001902081518190610ecb9082612d74565b5060208201516001820190610ee09082612d74565b50604082810151600283015560608301516003830155608090920151600490910155600e546000908152600c6020522081518291908190610f219082612d74565b5060208201516001820190610f369082612d74565b506040820151600282015560608201516003820155608090910151600490910155600d8054600181018255600091909152815182916005027fd7b6990105719101dabeb77144f2a3385c8033acd3af97e9423a695e81ad1eb501908190610f9d9082612d74565b5060208201516001820190610fb29082612d74565b5060408201518160020155606082015181600301556080820151816004015550507f386c333447eb44c8f6614622ff298dc5c66657754f3d4c8de2bd27edd9b8ea6086868686600e5460405161100c959493929190612aff565b60405180910390a1600e805490600061102483612e9d565b91905055506001600e546110389190612eb6565b9695505050505050565b336000908152601660205260408120541561113b5760005b3360009081526016602052604090205481101561113957336000908152601660205260409020805485916015918490811061109757611097612d0f565b9060005260206000200154815481106110b2576110b2612d0f565b906000526020600020906005020160010154036111275760405162461bcd60e51b815260206004820152602860248201527f5573657220616c726561647920656e726f6c6c656420696e746f20746865206360448201526768616c6c656e676560c01b60648201526084015b60405180910390fd5b8061113181612e9d565b91505061105a565b505b6000838152600760205260408120805461115490612cd5565b80601f016020809104026020016040519081016040528092919081815260200182805461118090612cd5565b80156111cd5780601f106111a2576101008083540402835291602001916111cd565b820191906000526020600020905b8154815290600101906020018083116111b057829003601f168201915b5050505050905080516000036112195760405162461bcd60e51b8152602060048201526011602482015270496e76616c6964206368616c6c656e676560781b604482015260640161111e565b6000838152601060205260409020805461123290612cd5565b80601f016020809104026020016040519081016040528092919081815260200182805461125e90612cd5565b80156112ab5780601f10611280576101008083540402835291602001916112ab565b820191906000526020600020905b81548152906001019060200180831161128e57829003601f168201915b5050505050905080516000036112f45760405162461bcd60e51b815260206004820152600e60248201526d125b9d985b1a590818dbda1bdc9d60921b604482015260640161111e565b6040805160c081018252600080825260208201819052918101829052606081018290526080810182905260a08101919091528481602001818152505083816040018181525050600181606001901515908115158152505060018160800190151590811515815250503381600001906001600160a01b031690816001600160a01b03168152505060166000336001600160a01b03166001600160a01b0316815260200190815260200160002060185490806001815401808255809150506001900390600052602060002001600090919091909150558060176000601854815260200190815260200160002060008201518160000160006101000a8154816001600160a01b0302191690836001600160a01b03160217905550602082015181600101556040820151816002015560608201518160030160006101000a81548160ff02191690831515021790555060808201518160030160016101000a81548160ff02191690831515021790555060a08201518160040155905050601581908060018154018082558091505060019003906000526020600020906005020160009091909190915060008201518160000160006101000a8154816001600160a01b0302191690836001600160a01b03160217905550602082015181600101556040820151816002015560608201518160030160006101000a81548160ff02191690831515021790555060808201518160030160016101000a81548160ff02191690831515021790555060a0820151816004015550507f3798808d51c38fd8edfe6196d7840a8190340f2733377adc0efccb8e2e13bbcc33868660185460405161157d94939291906001600160a01b0394909416845260208401929092526040830152606082015260800190565b60405180910390a16018805490600061159583612e9d565b919050555060016018546115a99190612eb6565b925050505b92915050565b601060205260009081526040902080548190610d7490612cd5565b3360009081526016602090815260409182902080548351818402810184019094528084526060939283018282801561162657602002820191906000526020600020905b815481526020019060010190808311611612575b5050505050905090565b6016602052816000526040600020818154811061164c57600080fd5b90600052602060002001600091509150505481565b60026020526000908152604090208054819061167c90612cd5565b80601f01602080910402602001604051908101604052809291908181526020018280546116a890612cd5565b80156116f55780601f106116ca576101008083540402835291602001916116f5565b820191906000526020600020905b8154815290600101906020018083116116d857829003601f168201915b50505050509080600101805461170a90612cd5565b80601f016020809104026020016040519081016040528092919081815260200182805461173690612cd5565b80156117835780601f1061175857610100808354040283529160200191611783565b820191906000526020600020905b81548152906001019060200180831161176657829003601f168201915b5050505060028301546003840154600490940154929360ff9091169290915085565b601481815481106117b557600080fd5b90600052602060002090600202016000915090508060000180546117d890612cd5565b80601f016020809104026020016040519081016040528092919081815260200182805461180490612cd5565b80156118515780601f1061182657610100808354040283529160200191611851565b820191906000526020600020905b81548152906001019060200180831161183457829003601f168201915b5050505050908060010154905082565b606060006001836040516118759190612f3f565b908152604051908190036020019020805461188f90612cd5565b80601f01602080910402602001604051908101604052809291908181526020018280546118bb90612cd5565b80156119085780601f106118dd57610100808354040283529160200191611908565b820191906000526020600020905b8154815290600101906020018083116118eb57829003601f168201915b5050505050905080516000036119595760405162461bcd60e51b815260206004820152601660248201527518dbdb5b5d5b9a5d1e48191bd95cdb9d08195e1a5cdd60521b604482015260640161111e565b8360018460405161196a9190612f3f565b908152602001604051809103902060040154146119c15760405162461bcd60e51b8152602060048201526015602482015274496e76616c696420636f6d6d756e697479206b657960581b604482015260640161111e565b6005836040516119d19190612f3f565b9081526040805191829003602090810183208054808302850183019093528284529190830182828015611a2357602002820191906000526020600020905b815481526020019060010190808311611a0f575b505050505091505092915050565b600d8181548110611a4157600080fd5b9060005260206000209060050201600091509050806000018054611a6490612cd5565b80601f0160208091040260200160405190810160405280929190818152602001828054611a9090612cd5565b8015611add5780601f10611ab257610100808354040283529160200191611add565b820191906000526020600020905b815481529060010190602001808311611ac057829003601f168201915b505050505090806001018054611af290612cd5565b80601f0160208091040260200160405190810160405280929190818152602001828054611b1e90612cd5565b8015611b6b5780601f10611b4057610100808354040283529160200191611b6b565b820191906000526020600020905b815481529060010190602001808311611b4e57829003601f168201915b5050505050908060020154908060030154908060040154905085565b600c60205260009081526040902080548190611a6490612cd5565b60118181548110611bb257600080fd5b9060005260206000209060030201600091509050806000018054610d7490612cd5565b60196020526000908152604090208054600182015460028301546003840180546001600160a01b0390941694929391929161067590612cd5565b8151602081840181018051600582529282019185019190912091905280548290811061164c57600080fd5b8051602081830181018051600b82529282019190930120915280548190611a6490612cd5565b60088181548110611c7057600080fd5b90600052602060002090600702016000915090508060000180546107b190612cd5565b60158181548110611ca357600080fd5b6000918252602090912060059091020180546001820154600283015460038401546004909401546001600160a01b0390931694509092909160ff808316926101009004169086565b6060611d0a604051806040016040528060608152602001600081525090565b838152602081018390526040518190601390611d27908790612f3f565b90815260405190819003602001902081518190611d449082612d74565b5060209190910151600191820155601480549182018155600052815182916002027fce6d7b5282bd9a3661ae061feed1dbda4e52ab073b1f9285be6e155d9c38d4ec01908190611d949082612d74565b506020820151816001015550507fc6ca801e8cd9f1cc24841ec846d513c26062cfcbf775e3f8d97231bb8b68dbba8484604051611dd2929190612a96565b60405180910390a1509192915050565b6000611e266040518060e001604052806060815260200160608152602001600081526020016000815260200160001515815260200160008152602001600081525090565b858152602081018590528215156080820152604080820185905260a0820188905260095460c083015251600590611e5e908a90612f3f565b90815260405190819003602090810182206009548154600181018355600092835292909120909101558190600690611e97908990612f3f565b90815260405190819003602001902081518190611eb49082612d74565b5060208201516001820190611ec99082612d74565b50604082810151600283015560608301516003830155608083015160048301805460ff191691151591909117905560a0830151600583015560c090920151600690910155600954600090815260076020522081518291908190611f2c9082612d74565b5060208201516001820190611f419082612d74565b506040820151600282015560608201516003820155608082015160048201805491151560ff1990921691909117905560a0820151600582015560c09091015160069091015560088054600181018255600091909152815182916007027ff3f7a9fe364faab93b216da50a3214154f22a0a2b415b23a84c8169e8b636ee301908190611fcc9082612d74565b5060208201516001820190611fe19082612d74565b50604082810151600283015560608301516003830155608083015160048301805460ff191691151591909117905560a0830151600583015560c09092015160069091015560095490517f57da1c1d09799d711292a20228ab743bdc787c13695e84a81043787b1f5e8e669161205d91899189918d908d90612f5b565b60405180910390a16009805490600061207583612e9d565b919050555060016009546120899190612eb6565b98975050505050505050565b60006120bb60405180606001604052806060815260200160008152602001600081525090565b83815260208101839052601254604080830191909152518190600f906120e2908790612f3f565b908152604051908190036020019020815181906120ff9082612d74565b5060208281015160018301556040928301516002909201919091556012546000908152601090915220815182919081906121399082612d74565b506020820151600180830191909155604090920151600290910155601180549182018155600052815182916003027f31ecc21a745e3968a04e9570e4425bc18fa8019c68028196b546d1669c200c68019081906121969082612d74565b50602082015181600101556040820151816002015550507fd8b756318acf73eeed189522277be650063903bad94f87185a0e9c89a558241a846012546040516121e0929190612a96565b60405180910390a1601280549060006121f883612e9d565b9190505550600160125461220c9190612eb6565b949350505050565b80516020818301810180516013825292820191909301209152805481906117d890612cd5565b8151602081840181018051600a82529282019185019190912091905280548290811061164c57600080fd5b80516020818301810180516006825292820191909301209152805481906107b190612cd5565b805160208183018101805160018252928201919093012091528054819061167c90612cd5565b600381815481106122c157600080fd5b906000526020600020906005020160009150905080600001805461167c90612cd5565b600061231a6040518060a00160405280606081526020016060815260200160001515815260200160008152602001600081525090565b84815260208101849052821515604080830191909152600060608301526004546080830152518190600190612350908890612f3f565b9081526040519081900360200190208151819061236d9082612d74565b50602082015160018201906123829082612d74565b506040828101516002838101805460ff19169215159290921790915560608401516003840155608090930151600492830155905460009081526020929092529020815182919081906123d49082612d74565b50602082015160018201906123e99082612d74565b50604082015160028201805491151560ff1990921691909117905560608201516003808301919091556080909201516004909101558054600181018255600091909152815182916005027fc2575a0e9e593c00f959f8c92f12db2869c3395a3b0502d05e2516446f71f85b019081906124629082612d74565b50602082015160018201906124779082612d74565b5060408281015160028301805460ff1916911515919091179055606083015160038301556080909201516004918201555490517ffb591a62cc32f64694fd051b543d434a5a05f50fee72e157400db204d2ace719916124d99188918891612fad565b60405180910390a1600480549060006124f183612e9d565b919050555060016004546125059190612eb6565b95945050505050565b606060006006836040516125229190612f3f565b908152604051908190036020019020805461253c90612cd5565b80601f016020809104026020016040519081016040528092919081815260200182805461256890612cd5565b80156125b55780601f1061258a576101008083540402835291602001916125b5565b820191906000526020600020905b81548152906001019060200180831161259857829003601f168201915b5050505050905080516000036126035760405162461bcd60e51b81526020600482015260136024820152721b595d1c9a58c8191bd95cdb9d08195e1a5cdd606a1b604482015260640161111e565b836006846040516126149190612f3f565b908152602001604051809103902060060154146126685760405162461bcd60e51b8152602060048201526012602482015271496e76616c6964206d6574726963206b657960701b604482015260640161111e565b600a836040516119d19190612f3f565b60006020828403121561268a57600080fd5b5035919050565b60005b838110156126ac578181015183820152602001612694565b50506000910152565b600081518084526126cd816020860160208601612691565b601f01601f19169290920160200192915050565b60018060a01b038816815286602082015285604082015260e06060820152600061270e60e08301876126b5565b828103608084015261272081876126b5565b60a0840195909552505090151560c09091015295945050505050565b60e08152600061274f60e083018a6126b5565b8281036020840152612761818a6126b5565b604084019890985250506060810194909452911515608084015260a083015260c09091015292915050565b60608152600061279f60608301866126b5565b82810360208401526127b181866126b5565b9050828103604084015261103881856126b5565b634e487b7160e01b600052604160045260246000fd5b600082601f8301126127ec57600080fd5b813567ffffffffffffffff80821115612807576128076127c5565b604051601f8301601f19908116603f0116810190828211818310171561282f5761282f6127c5565b8160405283815286602085880101111561284857600080fd5b836020870160208301376000602085830101528094505050505092915050565b600080600080600060a0868803121561288057600080fd5b8535945060208601359350604086013567ffffffffffffffff808211156128a657600080fd5b6128b289838a016127db565b945060608801359150808211156128c857600080fd5b506128d5888289016127db565b95989497509295608001359392505050565b6000602082840312156128f957600080fd5b813567ffffffffffffffff81111561291057600080fd5b61220c848285016127db565b60608152600061292f60608301866126b5565b60208301949094525060400152919050565b6000806000806080858703121561295757600080fd5b843567ffffffffffffffff8082111561296f57600080fd5b61297b888389016127db565b9550602087013591508082111561299157600080fd5b5061299e878288016127db565b949794965050505060408301359260600135919050565b600080604083850312156129c857600080fd5b50508035926020909101359150565b6020808252825182820181905260009190848201906040850190845b81811015612a0f578351835292840192918401916001016129f3565b50909695505050505050565b60008060408385031215612a2e57600080fd5b82356001600160a01b0381168114612a4557600080fd5b946020939093013593505050565b60a081526000612a6660a08301886126b5565b8281036020840152612a7881886126b5565b95151560408401525050606081019290925260809091015292915050565b604081526000612aa960408301856126b5565b90508260208301529392505050565b60008060408385031215612acb57600080fd5b82359150602083013567ffffffffffffffff811115612ae957600080fd5b612af5858286016127db565b9150509250929050565b60a081526000612b1260a08301886126b5565b8281036020840152612b2481886126b5565b60408401969096525050606081019290925260809091015292915050565b60008060408385031215612b5557600080fd5b823567ffffffffffffffff811115612b6c57600080fd5b612b78858286016127db565b95602094909401359450505050565b602081526000612b9a60208301846126b5565b9392505050565b80358015158114612bb157600080fd5b919050565b60008060008060008060c08789031215612bcf57600080fd5b863567ffffffffffffffff80821115612be757600080fd5b612bf38a838b016127db565b9750602089013596506040890135915080821115612c1057600080fd5b612c1c8a838b016127db565b95506060890135915080821115612c3257600080fd5b50612c3f89828a016127db565b93505060808701359150612c5560a08801612ba1565b90509295509295509295565b600080600060608486031215612c7657600080fd5b833567ffffffffffffffff80821115612c8e57600080fd5b612c9a878388016127db565b94506020860135915080821115612cb057600080fd5b50612cbd868287016127db565b925050612ccc60408501612ba1565b90509250925092565b600181811c90821680612ce957607f821691505b602082108103612d0957634e487b7160e01b600052602260045260246000fd5b50919050565b634e487b7160e01b600052603260045260246000fd5b601f821115612d6f57600081815260208120601f850160051c81016020861015612d4c5750805b601f850160051c820191505b81811015612d6b57828155600101612d58565b5050505b505050565b815167ffffffffffffffff811115612d8e57612d8e6127c5565b612da281612d9c8454612cd5565b84612d25565b602080601f831160018114612dd75760008415612dbf5750858301515b600019600386901b1c1916600185901b178555612d6b565b600085815260208120601f198616915b82811015612e0657888601518255948401946001909101908401612de7565b5085821015612e245787850151600019600388901b60f8161c191681555b5050505050600190811b01905550565b60018060a01b038716815285602082015284604082015260c060608201526000612e6160c08301866126b5565b8281036080840152612e7381866126b5565b9150508260a0830152979650505050505050565b634e487b7160e01b600052601160045260246000fd5b600060018201612eaf57612eaf612e87565b5060010190565b818103818111156115ae576115ae612e87565b6000808354612ed781612cd5565b60018281168015612eef5760018114612f0457612f33565b60ff1984168752821515830287019450612f33565b8760005260208060002060005b85811015612f2a5781548a820152908401908201612f11565b50505082870194505b50929695505050505050565b60008251612f51818460208701612691565b9190910192915050565b60a081526000612f6e60a08301886126b5565b8281036020840152612f8081886126b5565b90508560408401528281036060840152612f9a81866126b5565b9150508260808301529695505050505050565b606081526000612fc060608301866126b5565b8281036020840152612fd281866126b5565b91505082604083015294935050505056fea2646970667358221220ad6764b6963414c534e9368423cd8539e18455d840111375ec2bfd45c54c65d164736f6c63430008110033436f6d6d756e6974792047726f757020666f63757373696e67206f6e20206d696e6466756c206c6976696e67507261637469636520746563686e697175657320746861742068656c707320796f7520746f206265636f6d65206561726c7920726169736572436f6d6d756e6974792047726f757020666f63757373696e67206f6e2020706572736f6e616c206566666563746976656e657373507261637469636520746563686e697175657320746861742068656c707320746f206170706c79206765742066696e616e6369616c2066726565646f6d436f6d6d756e6974792047726f757020666f63757373696e67206f6e20206275696c64696e67206c6966656c6f6e67207468726976696e672072656c6174696f6e7368697073507261637469636520746563686e697175657320746861742068656c707320796f7520746f206265636f6d6520666f63757373656420617420796f757220776f726b20616e6420616368696576696e6720796f757220676f616c507261637469636520746563686e697175657320746861742068656c707320796f7520746f206265636f6d6520636f6e73697374656e7420616e64206e6f74206d697373206f7574206f6e20796f7572206461696c7920706c616e6e6564207363686564756c6573436f6d6d756e6974792047726f757020666f63757373696e67206f6e202046696e616e6369616c2077656c6c6265696e67",
    "linkReferences": {}
  },
  "methodIdentifiers": {
    "ChallengeNameToMetric(string,uint256)": "b3508055",
    "CommunityNameToChallenge(string,uint256)": "7e29f891",
    "accumulatePointsByUser()": "987872b4",
    "activities(uint256)": "0d1657e8",
    "activityKey()": "ba7d0f2f",
    "challengeKey()": "8062f9b4",
    "challenges(uint256)": "8f1d3776",
    "cohortKey()": "cd6e911d",
    "cohorts(uint256)": "74ed78d0",
    "communities(uint256)": "e590b56a",
    "communityKey()": "f7505b8b",
    "enrollIntoChallenge(uint256,uint256)": "36da73d3",
    "enrollmentKey()": "97d3a497",
    "enrollments(uint256)": "9a6b2087",
    "indexKeyToActivity(uint256)": "779c629f",
    "indexKeyToChallenge(uint256)": "191be53e",
    "indexKeyToCohort(uint256)": "3d755721",
    "indexKeyToCommunity(uint256)": "5a2cbabc",
    "indexKeyToEnrollment(uint256)": "35f5c453",
    "indexKeyToMetric(uint256)": "6f8c20a8",
    "insertActivity(uint256,uint256,string,string,uint256)": "27d554c4",
    "insertChallenge(string,uint256,string,string,uint256,bool)": "a8a54acd",
    "insertCohort(string,uint256)": "af0ebed2",
    "insertCommunity(string,string,bool)": "ef545f45",
    "insertMetric(string,string,uint256,uint256)": "3221fc39",
    "insertNFTRules(string,uint256)": "a009c31f",
    "metricKey()": "4b5a0434",
    "metrics(uint256)": "6d9aac62",
    "nameToChallenge(string)": "b5e4a227",
    "nameToCohort(string)": "2f78f05b",
    "nameToCommunity(string)": "e31a9e4f",
    "nameToMetric(string)": "80dea36b",
    "nameToNFTRule(string)": "b31ef534",
    "nftrules(uint256)": "5f17141d",
    "owner()": "8da5cb5b",
    "ownerToEnrollments(address,uint256)": "5505afc6",
    "validateActivity()": "0d4cff37",
    "viewChallengebyCommunity(uint256,string)": "629f6fa3",
    "viewEnrollmentsbyUser()": "46b80a3b",
    "viewMetricbyChallenge(uint256,string)": "ff98d45e",
    "viewNFTRules()": "1b9705c8"
  },
  "id": 22
}